:100000000C94B1000C94CE000C94CE000C94CE0055
:100010000C94CE000C94CE000C94CE000C94CE0028
:100020000C94CE000C94CE000C94CE000C94CE0018
:100030000C94CE000C94CE000C94CE000C94CE0008
:100040000C94CE000C94CE000C94CE000C94CE00F8
:100050000C94CE000C94CE000C94CE000C94CE00E8
:100060000C94CE000C94CE0000407A10F35A00A0FD
:10007000724E18090010A5D4E80000E87648170071
:1000800000E40B54020000CA9A3B000000E1F505B1
:10009000000080969800000040420F000000A086FB
:1000A00001000000102700000000E803000000002D
:1000B0006400000000000A000000000001000000D1
:1000C00000002C76D888DC674F0823DFC1DFAE59EB
:1000D000E1B1B796E5E3E453C63AE651997696E87E
:1000E000E6C28426EB898C9B62ED407C6FFCEFBC02
:1000F0009C9F40F2BAA56FA5F490055A2AF75C932D
:100100006B6CF9676DC11BFCE0E40D47FEF520E662
:10011000B500D0ED902E0300943577050080841E45
:10012000080000204E0A000000C80C333333330FA0
:10013000986E12831141EF8D2114893BE65516CF3D
:10014000FEE6DB18D1844B381BF77C1D901DA4BB49
:10015000E424203284725E228100C9F124ECA1E5FE
:100160003D2711241FBECFEFD8E0DEBFCDBF11E089
:10017000A0E0B1E0E0E5F2E202C005900D92A43308
:10018000B107D9F721E0A4E3B1E001C01D92A13786
:10019000B207E1F70E94F40B0C9426110C940000B6
:1001A000CF93DF93E2ECF0E020812F7D208320814C
:1001B0002F7E20832081277F2083C1ECD0E02881FF
:1001C0002B7F28832081246020832081226020834C
:1001D000E0ECF0E020812D7F20839B01AC0184E0E6
:1001E000220F331F441F551F8A95D1F760E074E238
:1001F00084EF90E00E94F90B215031093093C50043
:100200002093C40088818061888388818860888386
:10021000DF91CF9108959091C00095FFFCCF80931E
:10022000C60008950F931F93CF938C01C0E0F8018F
:10023000EC0FF11D8081882321F00E940B01CF5F1C
:10024000F6CFCF911F910F9108950F931F93CF93E6
:100250008C01C0E0F801EC0FF11D8081882321F0B2
:100260000E940B01CF5FF6CF8AE00E940B018DE068
:10027000CF911F910F910C940B018091C00087FFCB
:10028000FCCF8091C60008958091C000881F882708
:10029000881F089508958091850090E0982F882701
:1002A00020918400822B969587950895E1E8F0E0EF
:1002B0008081887F826080830895E1E8F0E080811A
:1002C000887F80830895109285001092840008959D
:1002D000CF93C42F8F31910518F48FE190E006C0C1
:1002E00089352BE1920710F088E59BE19093350169
:1002F00080933401611114C061E081E00E943A03EF
:1003000080918000C11102C0806C02C08F73806830
:1003100080938000809180008F7C8093800013C048
:10032000613089F482E00E943A0380918000C1111B
:1003300002C0806302C08F7C8062809380008091C5
:1003400080008F731BC061E082E00E943A0361E08D
:1003500081E00E943A0380918000C11107C0806350
:100360008093800080918000806C08C08F7C8062C8
:1003700080938000809180008F73806880938000DC
:10038000809180008C7F82608093800080918100CA
:10039000886180938100209134013091350140E0E3
:1003A00050E060E074E284EF90E00E94F90BCA0133
:1003B000B9010E942E0D20E030E040E05EE30E9493
:1003C000E50D0E94FF0C6093360170933701709326
:1003D0008700809136018093860080918100887F1C
:1003E000826080938100CF910895CF92DF92EF9247
:1003F000FF921F93CF93DF93182FEB01609136018B
:100400007091370180E090E00E942E0D20E030E0F6
:1004100040E05AE30E94E50D6B017C01BE0180E0E3
:1004200090E00E942E0D9B01AC01C701B6010E9415
:10043000E50D0E94FF0C111105C0709389006093B7
:10044000880006C0113021F470938B0060938A00FD
:10045000DF91CF911F91FF90EF90DF90CF900895A3
:10046000CF93C82F8CB5411102C0877F01C088602F
:100470008CBD8CB5611102C08F7E01C080618CBDC6
:10048000C730A1F460E083E00E943A0360E085E0B9
:100490000E943A0360E082E00E943A0361E084E057
:1004A0000E943A038CB58F7E8CBD1EC061E083E054
:1004B0000E943A0361E085E00E943A0360E084E034
:1004C0000E943A038CB580618CBD8DB5C43028F490
:1004D0008E7F8DBD8CB58C7F05C081608DBD8CB548
:1004E0008C7FC370C82BCCBD8CB580648CBDCF9184
:1004F00008958EBD0DB407FEFDCF08958EBD0DB4D9
:1005000007FEFDCF8EB50895E9EBF0E080818C7F8A
:10051000808388E48093B800ECEBF0E08081846015
:100520008083089594EA9093BC009091BC0097FF5B
:10053000FCCF9091B900987F983011F080E0089539
:100540008093BB0084E88093BC008091BC0087FF4F
:10055000FCCF8091B900887F883111F0803471F729
:1005600081E008958093BB0084E88093BC00809173
:10057000BC0087FFFCCF9091B900987F81E0983153
:1005800009F080E0089584EC8093BC008091BC0069
:1005900087FFFCCF8091BB00089584E88093BC0066
:1005A0008091BC0087FFFCCF8091BB000895FF9233
:1005B0000F931F93CF93DF93F62E072F142F880FDF
:1005C0000E9492028130A9F4CF2DD02FCE01810F4D
:1005D000911D8C01C017D10739F089910E94B20298
:1005E0008130C1F381E001C080E094E99093BC00C8
:1005F00001C081E091E08927DF91CF911F910F9198
:10060000FF900895CF92DF92EF92FF921F93CF93C6
:10061000DF936B01C42F880F81600E9492028130AA
:10062000D1F410E0D0E02197812F90E07601E80E20
:10063000F91E8C179D0734F40E94C302F7018083D2
:100640001F5FF2CF0E94CD02F701808384E980937F
:10065000BC0080E001C081E091E08927DF91CF916B
:100660001F91FF90EF90DF90CF90089584E98093E1
:10067000BC000895982F9770869586958695813051
:10068000C1F120F0823009F467C0089561110DC0F6
:1006900044B121E030E0B90102C0660F771F9A959E
:1006A000E2F7CB01809584230DC0613069F444B139
:1006B00021E030E0B90102C0660F771F9A95E2F79A
:1006C000CB01842B84B90895623009F076C044B11F
:1006D00021E030E0B90102C0660F771F9A95E2F77A
:1006E000CB01962F9095942394B995B1892B85B918
:1006F000089561110DC047B121E030E0B90102C099
:10070000660F771F9A95E2F7CB01809584230DC081
:10071000613069F447B121E030E0B90102C0660FF1
:10072000771F9A95E2F7CB01842B87B90895623041
:1007300009F043C047B121E030E0B90102C0660FC3
:10074000771F9A95E2F7CB01962F9095942397B94E
:1007500098B1892B88B9089561110DC04AB121E083
:1007600030E0B90102C0660F771F9A95E2F7CB011E
:10077000809584230DC0613069F44AB121E030E0F6
:10078000B90102C0660F771F9A95E2F7CB01842B5F
:100790008AB90895623089F44AB121E030E0B901A4
:1007A00002C0660F771F9A95E2F7CB01962F9095BE
:1007B00094239AB99BB1892B8BB90895982F977080
:1007C0008695869586958130E9F018F0823099F10A
:1007D000089545B121E030E061110AC0B90102C0BD
:1007E000660F771F9A95E2F7CB018095842308C0A6
:1007F000B90102C0660F771F9A95E2F7CB01842BEF
:1008000085B9089548B121E030E061110AC0B9010D
:1008100002C0660F771F9A95E2F7CB01809584237B
:1008200008C0B90102C0660F771F9A95E2F7CB01A5
:10083000842B88B908954BB121E030E061110AC0E2
:10084000B90102C0660F771F9A95E2F7CB01809538
:10085000842308C0B90102C0660F771F9A95E2F79A
:10086000CB01842B8BB90895482F477086958695C8
:100870008695813039F020F08230B1F429B103C07F
:1008800023B101C026B181E090E0042E02C0880FA0
:10089000991F0A94E2F730E08223932302C09595D2
:1008A00087954A95E2F7089580E00895813031F008
:1008B00018F0823029F0089564B9089567B9089551
:1008C0006AB90895813031F018F0823029F0089526
:1008D00065B9089568B908956BB90895EAE7F0E03D
:1008E0008081806880838081846080838081826051
:1008F0008083808181608083ECE7F0E080818F7766
:10090000808380818064808380818F7D808308954F
:1009100090917C00907F892B80937C0080917A005D
:10092000806480937A0080917A0086FDFCCF80916C
:1009300078002091790090E0922B089590917C00AE
:10094000907F892B80937C0080917A0080648093D3
:100950007A0080917A0086FDFCCF609178008091CA
:10096000790070E0782B80E090E00E942E0D20E06E
:1009700030E040EA5BE30E94E50D0895CF93C82F75
:10098000682F617080E10E94DE03C1FB662760F979
:1009900081E10E94DE03C2FB662760F982E10E94CA
:1009A000DE03C3FB662760F983E10E94DE03C4FB1C
:1009B000662760F984E10E94DE03C5FB662760F9C3
:1009C00085E10E94DE03C6FB662760F986E1CF91D0
:1009D0000C94DE0361E080E10E943A0361E081E172
:1009E0000E943A0361E082E10E943A0361E083E100
:1009F0000E943A0361E084E10E943A0361E085E1EC
:100A00000E943A0361E086E10E943A038FEF0C9462
:100A1000BE048A3040F4E82FF0E0E050FF4F8081C0
:100A200080950E94BE0460E080E00E94DE0361E0E9
:100A300080E00C94DE0360E080E10E943A0361E014
:100A400081E10E943A0360E875E280E090E00E9454
:100A5000D0002FEF81EE94E0215080409040E1F7EC
:100A600000C0000008950F931F93CF93DF9300E021
:100A700010E0D0E0C0E00E9444018823C1F00E9451
:100A80003D018230D9F0833049F4D130D1F4EC2FDC
:100A9000F0E0E35AFE4F108281E01BC0D13089F4B0
:100AA000EC2FF0E0E35AFE4F8083CF5F0BC08FE95D
:100AB0009FE00197F1F700C0000004C0D1E0C0E062
:100AC00001C0D0E00336110519F00F5F1F4FD3CFDF
:100AD00080E0DF91CF911F910F9108958DE591E016
:100AE0000895CF93C82F60E080E00E94DE036C2F52
:100AF000617082E00E94DE03C1FB662760F983E03B
:100B00000E94DE03C2FB662760F984E00E94DE03D8
:100B1000C3FB662760F985E00E94DE0360E081E0A8
:100B20000E94DE0361E081E00E94DE0385E08A9599
:100B3000F1F7000060E081E00E94DE038FE891E0C1
:100B40000197F1F700C00000CF910895CF93C82F0F
:100B500060E080E00E94DE03C4FB662760F982E06B
:100B60000E94DE03C5FB662760F983E00E94DE0376
:100B7000C6FB662760F984E00E94DE036C2F661FC7
:100B80006627661F85E00E94DE0360E081E00E9428
:100B9000DE0361E081E00E94DE0385E08A95F1F7E3
:100BA000000060E081E00E94DE038FE891E00197A1
:100BB000F1F700C000006C2F617082E00E94DE033C
:100BC000C1FB662760F983E00E94DE03C2FB662753
:100BD00060F984E00E94DE03C3FB662760F985E0CC
:100BE0000E94DE0360E081E00E94DE0361E081E0BC
:100BF0000E94DE0395E09A95F1F7000060E081E045
:100C00000E94DE038FE891E00197F1F700C0000039
:100C1000CF910895CF93C82F61E080E00E94DE035A
:100C2000C4FB662760F982E00E94DE03C5FB6627ED
:100C300060F983E00E94DE03C6FB662760F984E06A
:100C40000E94DE036C2F661F6627661F85E00E94E8
:100C5000DE0360E081E00E94DE0361E081E00E944B
:100C6000DE0385E08A95F1F7000060E081E00E94F4
:100C7000DE038FE891E00197F1F700C000006C2FD0
:100C8000617082E00E94DE03C1FB662760F983E0A9
:100C90000E94DE03C2FB662760F984E00E94DE0347
:100CA000C3FB662760F985E00E94DE0360E081E017
:100CB0000E94DE0361E081E00E94DE0395E09A95E8
:100CC000F1F7000060E081E00E94DE038FE891E030
:100CD0000197F1F700C00000CF91089561E080E036
:100CE0000E943A0361E081E00E943A0361E082E001
:100CF0000E943A0361E083E00E943A0361E084E0ED
:100D00000E943A0361E085E00E943A0360E081E0DE
:100D10000E94DE032FEF89EF90E021508040904049
:100D2000E1F700C0000083E00E9471058FE19EE4BE
:100D30000197F1F700C0000083E00E9471058FE188
:100D400093E00197F1F700C0000083E00E94710575
:100D50008FE193E00197F1F700C0000082E00E946C
:100D6000710588E20E94A6058FE193E00197F1F7F3
:100D700000C0000088E00E94A6058FE193E0019783
:100D8000F1F700C0000081E00E94A6058FE39FE11B
:100D90000197F1F700C0000086E00E94A6058FE9E8
:100DA0009FE00197F1F700C000008EE00E94A605C9
:100DB0008FE193E00197F1F700C000000895CF9311
:100DC000C82F842F90E4699F800D1124815480687E
:100DD0000E94A6058FE891E00197F1F700C000009E
:100DE0008C2FCF910C940A060C940A060F931F9334
:100DF000CF938C01842F90E4699F800D112481543E
:100E000080680E94A6058FE891E00197F1F700C085
:100E10000000C0E0F801EC0FF11D8081882321F073
:100E20000E940A06CF5FF6CFCF911F910F910895D0
:100E30000F931F93CF938C01C0E0F801EC0FF11DCD
:100E40008081882321F00E940A06CF5FF6CFCF91E0
:100E50001F910F91089581E00E94A6058FE39FE105
:100E60000197F1F700C00000089561E086E10E945B
:100E70003A0361E087E10E943A0361E084E10E9465
:100E80003A0361E085E10E943A0360E086E10E9456
:100E9000DE0360E087E10E94DE0360E084E10E94FF
:100EA000DE0360E085E10C94DE0361E086E10E94F0
:100EB000DE0360E087E10E94DE0361E084E10E94DE
:100EC000DE0360E085E10C94DE0360E086E10E94D1
:100ED000DE0361E087E10E94DE0360E084E10E94BE
:100EE000DE0361E085E10C94DE0360E086E10E94B0
:100EF000DE0361E087E10E94DE0361E084E10E949D
:100F0000DE0360E085E10C94DE0361E086E10E948F
:100F1000DE0360E087E10E94DE0360E084E10E947E
:100F2000DE0361E085E10C94DE0360E086E10E946F
:100F3000DE0360E087E10E94DE0360E084E10E945E
:100F4000DE0360E085E10C94DE0360E080E10E9456
:100F50003A0361E081E10E943A0360E875E280E0D3
:100F600090E00E94D0002FEF81EE94E0215080406D
:100F70009040E1F700C0000010925C0108950F93CB
:100F80001F93CF93DF9300E010E0C0E00E94440184
:100F9000882399F00E943D01873441F4CC2309F461
:100FA00057C0C13009F056C0C2E055C0813409F0C5
:100FB00051C0C23009F04EC009C08FE99FE00197CF
:100FC000F1F700C00000C33009F04CC0C0E0D0E031
:100FD000D63008F045C00E9444018823C9F30E941E
:100FE0003D018C32F1F4DF5FD330A9F3D53099F3B2
:100FF000D23031F4EC2FF0E0E85CFE4F108E07C0E9
:10100000D43039F4EC2FF0E0E85CFE4F1082C0E001
:10101000E2CFD630D9F4EC2FF0E0EC5BFE4F10823B
:101020001FC02C2F30E0E1E0EC0FD901A85CBE4FCF
:10103000D13021F458968C93CE2FCDCFD43010F4EC
:101040008C9302C01C968C93CE2FC2CFC0E0C0CF31
:10105000C1E001C0C0E0073E93E0190739F409C0C0
:1010600081E008C0073E83E0180719F00F5F1F4FAB
:101070008DCF80E0DF91CF911F910F91089525E2F0
:10108000E8E3F1E0DC0101900D922A95E1F7089583
:10109000CF93DF93CDB7DEB72A970FB6F894DEBFB4
:1010A0000FBECDBF2FEF85EA9EE0215080409040DB
:1010B000E1F700C000000E946E0460E875E280E085
:1010C00090E00E94D0002FEF81EE94E0215080400C
:1010D0009040E1F700C0000080E00E9488044AE0F0
:1010E00050E0BE016F5F7F4F0E94880ECE010196D7
:1010F0000E9425012FEF83ED90E321508040904026
:10110000E1F7E8CF60EA76E881E090E00E948402AF
:101110002FEF85EA9EE0215080409040E1F700C02B
:10112000000082EA0E94920282E00E94B2028AEAF1
:101130000E94B2020E9436032FEF81EE94E021500C
:1011400080409040E1F700C0000080EA0E949202D7
:1011500082E00E94B2028AEA0E94B2020C94360334
:10116000CF93DF93CDB7DEB72A970FB6F894DEBFE3
:101170000FBECDBF2FEF85EA9EE02150804090400A
:10118000E1F700C000000E946E0460E875E280E0B4
:1011900090E00E94D0002FEF81EE94E0215080403B
:1011A0009040E1F700C0000080E00E949E046B01C7
:1011B0007C0120E030E44CE156E40E94E50D4B0157
:1011C0005C01A701960160E070E080EA90E40E9473
:1011D0008D0C20E030E040E85FE30E941B0C9B0197
:1011E000AC01C501B4010E948D0C0E94FF0C2AE0E5
:1011F00030E0AE014F5F5F4F0E94880ECE01019636
:101200000E9425012FEF83ED90E321508040904014
:10121000E1F7C8CF61E085E00E943A0361E085E034
:101220000E94DE032FEF81EE94E021508040904039
:10123000E1F700C0000060E085E00E94DE032FEFD0
:1012400081EE94E0215080409040E1F700C0000022
:10125000E5CF41E062E082E390E00E9468016FE741
:1012600070E080E00E94F50168EC70E081E00E948F
:10127000F501C7E4D0E0BE0180E00E94F5012FEF48
:1012800089E698E1215080409040E1F700C00000DD
:101290002196C33FD10579F7BE0180E00E94F50198
:1012A0002FEF89E698E1215080409040E1F700C09F
:1012B00000002197C634D10579F7DBCF0E941B05CA
:1012C0002FEF81EE94E0215080409040E1F700C084
:1012D00000000E9433058823E1F30E946E050E94FE
:1012E00012018AE091E00E941201F3CF2FEF81EE0C
:1012F00094E0215080409040E1F700C000000E943F
:10130000350760E875E280E090E00E94D0002FEFA2
:1013100083E294EF215080409040E1F700C000004C
:101320000E9444018823E1F30E943D01863419F4B0
:101330000E945507F5CF823419F40E946507F0CF5B
:101340008C3419F40E947507EBCF823519F40E9492
:101350008507E6CF833521F70E949507E1CF2FEF70
:1013600081EE94E0215080409040E1F700C0000001
:1013700060E080E00E943A0360E081E00E943A036E
:101380000E94EA0480E00E940905D0E0C0E080E00D
:101390000E943404813051F4C111C1508C2F0E943D
:1013A000090580E00E9434048130D9F381E00E9475
:1013B00034048130A9F48FE59AEE0197F1F700C06B
:1013C000000081E00E943404813009F7D111DFCFA1
:1013D000C53008F4CF5F8C2F0E940905D1E0D7CF2C
:1013E0008FE39CE90197F1F700C0000081E00E94C3
:1013F00034048111CCCFD0E0CACF2FEF81EE94E03E
:10140000215080409040E1F700C0000040E060E0E3
:1014100083E00E943002C0E28C2F0E947902CF5FED
:101420002FEF83ED90E3215080409040E1F700C022
:101430000000F2CF2FEF81EE94E0215080409040E9
:10144000E1F700C000000E946E040E946E0661E099
:1014500080E10E943A0361E081E10E943A0360E08A
:1014600080E10E94DE0360E081E10C94DE0360E035
:1014700080E10E94DE0361E081E10C94DE0361E023
:1014800080E10E94DE0360E081E10C94DE0360E015
:1014900080E10E94DE0360E081E10C94DE030E94A3
:1014A0009E0420E030E048EC52E40E94E50D0895EF
:1014B000CF92DF92EF92FF920F931F93CF93DF9320
:1014C000CDB7DEB72A970FB6F894DEBF0FBECDBFFB
:1014D0006B017C0141E062E08DE091E00E94F60644
:1014E0008E010F5F1F4F22E030E045E050E0C70162
:1014F000B6010E94520E0E9418078FED0E94F4065A
:1015000083E40E94F4062A960FB6F894DEBF0FBE5D
:10151000CDBFDF91CF911F910F91FF90EF90DF90A2
:10152000CF9008951F93CF93DF9300D000D000D0C9
:10153000CDB7DEB7182F41E061E082E191E00E9473
:10154000F6064AE050E0BE016F5F7F4F812F90E0CA
:101550000E94720E0E9418078FED0E94F40683E429
:101560000E94F40626960FB6F894DEBF0FBECDBFDC
:10157000DF91CF911F9108950E941A0A87E10E947E
:10158000920A80E00E944F0A6B017C010E94580A77
:1015900020E030E048EB51E4C701B6010E94E00DC5
:1015A00018161CF40E943F0A0FC020E030E048EB00
:1015B00051E4C701B6010E94880C87FF03C00E9456
:1015C000370A02C00E94470A2FEF83ED90E32150B3
:1015D00080409040E1F700C00000D3CFCF93DF936D
:1015E000CDB7DEB72A970FB6F894DEBF0FBECDBFDA
:1015F0002FEF85EA9EE0215080409040E1F700C047
:1016000000000E946E0460E875E280E090E00E94B5
:10161000D0002FEF81EE94E0215080409040E1F720
:1016200000C0000080E00E949E0420E030E048EC12
:1016300052E40E94E50D0E94FF0C862F4AE050E024
:10164000BE016F5F7F4F90E00E94720ECE01019647
:101650000E9425012FEF83ED90E3215080409040C0
:10166000E1F7DECF0E946E0644E061E08DE191E09B
:101670000E94F60680E090E00895CF93DF93CDB707
:10168000DEB7CA54D1090FB6F894DEBF0FBECDBF86
:101690000E946E060E94A5072FEF81EE94E0215074
:1016A00080409040E1F700C000000E94BF078823FF
:1016B000C9F0CE0186960E943F0885E2FE01B696EB
:1016C000DE01119601900D928A95E1F741E061E00B
:1016D000CE0101960E94F60641E062E0CE010D9631
:1016E0000E94F6062FEF83ED90E32150804090405A
:1016F000E1F7D9CFCF93DF93CDB7DEB72A970FB6F7
:10170000F894DEBF0FBECDBF2FEF81EE94E02150E5
:1017100080409040E1F700C0000060E875E280E0A2
:1017200090E00E94D0008AE291E00E9412012FEF27
:1017300081EE94E0215080409040E1F700C000002D
:1017400061E080E00E943A0360E081E00E943A0399
:1017500060E080E00E94DE0361E080E00E94DE0342
:1017600025E32A95F1F7000060E080E00E94DE03A7
:101770000E94630181E00E9434048823D9F30E940F
:10178000560181E00E9434048130D9F30E945D014A
:101790000E944B0196958795BC0180E090E00E94E5
:1017A0002E0D25ED38E749EA5EE30E94E50D0E9423
:1017B000FF0CDC01CB0140E150E0BE016F5F7F4FC9
:1017C0000E94720E8AE291E00E941201CE010196FF
:1017D0000E9425018FEF93ED20E38150904020403F
:1017E000E1F700C00000B8CF0E94290980E090E036
:1017F0000895A1E21A2EAA1BBB1BFD010DC0AA1F52
:10180000BB1FEE1FFF1FA217B307E407F50720F069
:10181000A21BB30BE40BF50B661F771F881F991FE4
:101820001A9469F760957095809590959B01AC012D
:10183000BD01CF0108955058BB27AA270E94330C41
:101840000C94A60D0E94980D38F00E949F0D20F078
:1018500039F49F3F19F426F40C94950D0EF4E0959D
:10186000E7FB0C948F0DE92F0E94B70D58F3BA17C0
:10187000620773078407950720F079F4A6F50C94A6
:10188000D90D0EF4E0950B2EBA2FA02D0B01B90146
:1018900090010C01CA01A0011124FF27591B99F0E6
:1018A000593F50F4503E68F11A16F040A22F232FF2
:1018B000342F4427585FF3CF469537952795A79542
:1018C000F0405395C9F77EF41F16BA0B620B730BE9
:1018D000840BBAF09150A1F0FF0FBB1F661F771F5A
:1018E000881FC2F70EC0BA0F621F731F841F48F40F
:1018F000879577956795B795F7959E3F08F0B0CF98
:101900009395880F08F09927EE0F9795879508957E
:101910000E946B0D08F481E008950E94A10C0C94C4
:10192000A60D0E949F0D58F00E94980D40F029F4DA
:101930005F3F29F00C948F0D51110C94DA0D0C942B
:10194000950D0E94B70D68F39923B1F3552391F3D8
:10195000951B550BBB27AA2762177307840738F01E
:101960009F5F5F4F220F331F441FAA1FA9F335D07B
:101970000E2E3AF0E0E832D091505040E695001C2F
:10198000CAF72BD0FE2F29D0660F771F881FBB1FE9
:10199000261737074807AB07B0E809F0BB0B802DC7
:1019A000BF01FF2793585F4F3AF09E3F510578F0F3
:1019B0000C948F0D0C94DA0D5F3FE4F3983ED4F352
:1019C000869577956795B795F7959F5FC9F7880FC7
:1019D000911D9695879597F90895E1E0660F771F19
:1019E000881FBB1F621773078407BA0720F0621BAA
:1019F000730B840BBA0BEE1F88F7E09508950E94D5
:101A0000BF0D88F09F5798F0B92F9927B751B0F0C4
:101A1000E1F0660F771F881F991F1AF0BA95C9F772
:101A200014C0B13091F00E94D90DB1E008950C942A
:101A3000D90D672F782F8827B85F39F0B93FCCF3DD
:101A4000869577956795B395D9F73EF490958095EF
:101A5000709561957F4F8F4F9F4F0895E89409C00F
:101A600097FB3EF490958095709561957F4F8F4FD1
:101A70009F4F9923A9F0F92F96E9BB279395F695E7
:101A8000879577956795B795F111F8CFFAF4BB0F65
:101A900011F460FF1BC06F5F7F4F8F4F9F4F16C0C9
:101AA000882311F096E911C0772321F09EE8872F53
:101AB000762F05C0662371F096E8862F70E060E00F
:101AC0002AF09A95660F771F881FDAF7880F969588
:101AD000879597F90895990F0008550FAA0BE0E82C
:101AE000FEEF16161706E807F907C0F012161306E0
:101AF000E407F50798F0621B730B840B950B39F420
:101B00000A2661F0232B242B252B21F408950A2685
:101B100009F4A140A6958FEF811D811D089597F9C5
:101B20009F6780E870E060E008959FEF80EC089583
:101B300000240A94161617061806090608950024AC
:101B40000A9412161306140605060895092E039426
:101B5000000C11F4882352F0BB0F40F4BF2B11F49A
:101B600060FF04C06F5F7F4F8F4F9F4F089557FDF9
:101B70009058440F551F59F05F3F71F04795880FFB
:101B800097FB991F61F09F3F79F087950895121692
:101B900013061406551FF2CF4695F1DF08C016163E
:101BA00017061806991FF1CF8695710561050894EF
:101BB0000895E894BB2766277727CB0197F9089506
:101BC0000E946B0D08F48FEF08950E94F80D0C949D
:101BD000A60D0E94980D38F00E949F0D20F09523CD
:101BE00011F00C948F0D0C94950D11240C94DA0DBA
:101BF0000E94B70D70F3959FC1F3950F50E0551FEC
:101C0000629FF001729FBB27F00DB11D639FAA2751
:101C1000F00DB11DAA1F649F6627B00DA11D661FA0
:101C2000829F2227B00DA11D621F739FB00DA11DC1
:101C3000621F839FA00D611D221F749F3327A00D7B
:101C4000611D231F849F600D211D822F762F6A2F17
:101C500011249F5750409AF0F1F088234AF0EE0F7C
:101C6000FF1FBB1F661F771F881F91505040A9F7A9
:101C70009E3F510580F00C948F0D0C94DA0D5F3F60
:101C8000E4F3983ED4F3869577956795B795F795E5
:101C9000E7959F5FC1F7FE2B880F911D969587955D
:101CA00097F90895EF920F931F93CF93DF93E80175
:101CB00047FD02C034E001C034E1042E000C550B96
:101CC00057FF03C0519541955109E32E022F242F50
:101CD000AE010E94AD0ECE01DF91CF911F910F9109
:101CE000EF9008954532510520F4423010F00C94E5
:101CF0007D0EFB011082CB010895BB274A3031F4E1
:101D0000992322F4BDE2909581959F4F0C94940EF7
:101D10004532510520F4423010F00C94930EFB0133
:101D20001082CB010895BB27FB015527AA27880FF6
:101D3000991FAA1FA41710F0A41B83955051B9F73F
:101D4000A05DAA3308F0A95DA193009779F7B111BE
:101D5000B1931192CB010C94DF10A9E0B0E0E3EB5A
:101D6000FEE00C94F5106A01122FB02E2BE3201721
:101D700020F0FF24F394F00E02C02CE3F22E0F2D7E
:101D800027E0AE014F5F5F4F0E940710BC01498101
:101D9000842F8970813031F0E1FC06C0E0FE06C07E
:101DA00090E205C09DE203C09BE201C090E05E2D81
:101DB000507143FF3CC0911102C083E001C084E038
:101DC000811718F4212F281B01C020E051110BC0EE
:101DD000F601822F30E2882319F031938150FBCF36
:101DE000C20ED11C20E0992329F0D6019C93F60164
:101DF00031966F01C6010396E2FE0AC03EE4D601A9
:101E00003C9341E411964C93119712963C9306C073
:101E10003EE6F601308341E641833283FC01322FF6
:101E200040E2332309F442C041933150FACF42FFDC
:101E300044C0911102C083E001C084E0811718F40E
:101E4000212F281B01C020E051110BC0F601822F69
:101E500030E2882319F031938150FBCFC20ED11CA0
:101E600020E0992329F0D6019C93F60131966F0169
:101E7000C6010396E2FE0BC039E4D6013C933EE472
:101E800011963C93119736E412963C9307C039E6BD
:101E9000F60130833EE6318336E63283FC01322F91
:101EA00040E2332319F041933150FBCFFC01E20FA4
:101EB000F11D10828EEF9FEFA6C021E030E091115E
:101EC00002C020E030E0161617061CF4FB01319624
:101ED00002C0E1E0F0E02E0F3F1FBB2021F0EB2D10
:101EE000F0E0319602C0E0E0F0E02E0F3F1FE12F5E
:101EF000F0E02E173F071CF4121B212F01C020E039
:101F00008E2D887159F4F601822F30E2882319F062
:101F100031938150FBCFC20ED11C20E0992329F0D0
:101F2000D6019C93F60131966F0151110BC0F60159
:101F3000822F90E3882319F091938150FBCFC20E3A
:101F4000D11C20E00F2D060F9A81342F307144FFF1
:101F500003C0913309F40150101624F4093018F02D
:101F600008E001C001E0AB0177FF02C040E050E0B3
:101F7000FB01E41BF50BA1E0B0E0AC0FBD1FEA0FC5
:101F8000FB1F8EE2A82E4B01801A91080B2D10E04A
:101F90001195019511094F3FBFEF5B0721F4D60161
:101FA000AC9211966D01641775072CF08416950696
:101FB00014F4818101C080E3415051093196D6016A
:101FC00011967D014017510724F0D6018C936701CB
:101FD000E2CF6417750739F4963320F4953319F47A
:101FE000311101C081E3F6018083F701822F90E275
:101FF000882319F091938150FBCFF701E20FF11D77
:10200000108280E090E02996ECE00C9411112830C9
:1020100008F027E03327DA01990F311D87FD916021
:1020200000966105710539F432602E5F3D9330E30F
:102030002A95E1F708959F3F30F0803871056105DA
:1020400009F03C5F3C5F3D93913008F08068911D42
:10205000DF93CF931F930F93FF92EF92192F987FE7
:102060009695E92F96959695E90FFF27EE53FF4F2A
:1020700099273327EE24FF24A701E7010590089450
:10208000079428F4360FE71EF81E491F511D660FEE
:10209000771F881F991F0694A1F70590079428F4CD
:1020A000E70EF81E491F561FC11D770F881F991F85
:1020B000661F0694A1F70590079428F4F80E491FAF
:1020C000561FC71FD11D880F991F661F771F0694C3
:1020D000A1F70590079420F4490F561FC71FD81F7A
:1020E000990F661F771F881F0694A9F78491109592
:1020F000177041F0D695C79557954795F794E79493
:102100001A95C1F7E8E6F0E06894159015913591BD
:102110006591959105907FE27395E118F10A430B63
:10212000560BC90BD009C0F7E10CF11E431F561F17
:10213000C91FD01D7EF4703311F48A95E6CFE89460
:10214000015030F0080F0AF40027021708F4202F7E
:102150002395022F7A3328F079E37D932A95E9F7C6
:1021600010C07D932A9589F60694979567953795C3
:1021700017951794E118F10A430B560BC90BD009B8
:1021800098F023957E9173957A3308F070E37C93F1
:102190002013B8F77E9170617D9330F0839571E3E1
:1021A0007D9370E32A95E1F71124EF90FF900F9152
:1021B0001F91CF91DF91992787FD90950895DC01BC
:1021C000FC01672F71917723E1F7329704C07C916E
:1021D0006D9370836291AE17BF07C8F308952F9275
:1021E0003F924F925F926F927F928F929F92AF92A7
:1021F000BF92CF92DF92EF92FF920F931F93CF93F4
:10220000DF93CDB7DEB7CA1BDB0B0FB6F894DEBF8A
:102210000FBECDBF09942A88398848885F846E84B0
:102220007D848C849B84AA84B984C884DF80EE80FA
:10223000FD800C811B81AA81B981CE0FD11D0FB603
:10224000F894DEBF0FBECDBFED010895F894FFCF27
:102250003F065B4F666D7D077F6F0A0D0074656DED
:102260003A0073657420706F696E743A004772614A
:1022700067682053797374656D0064697374616E67
:0422800063653A0058
:00000001FF
