:100000000C94B1000C94CE000C94CE000C94CE0055
:100010000C94CE000C94CE000C94CE000C94CE0028
:100020000C94CE000C94CE000C94CE000C94CE0018
:100030000C94CE000C94CE000C94CE000C94CE0008
:100040000C94CE000C94CE000C94CE000C94CE00F8
:100050000C94CE000C94CE000C94CE000C94CE00E8
:100060000C94CE000C94CE0000407A10F35A00A0FD
:10007000724E18090010A5D4E80000E87648170071
:1000800000E40B54020000CA9A3B000000E1F505B1
:10009000000080969800000040420F000000A086FB
:1000A00001000000102700000000E803000000002D
:1000B0006400000000000A000000000001000000D1
:1000C00000002C76D888DC674F0823DFC1DFAE59EB
:1000D000E1B1B796E5E3E453C63AE651997696E87E
:1000E000E6C28426EB898C9B62ED407C6FFCEFBC02
:1000F0009C9F40F2BAA56FA5F490055A2AF75C932D
:100100006B6CF9676DC11BFCE0E40D47FEF520E662
:10011000B500D0ED902E0300943577050080841E45
:10012000080000204E0A000000C80C333333330FA0
:10013000986E12831141EF8D2114893BE65516CF3D
:10014000FEE6DB18D1844B381BF77C1D901DA4BB49
:10015000E424203284725E228100C9F124ECA1E5FE
:100160003D2711241FBECFEFD8E0DEBFCDBF11E089
:10017000A0E0B1E0E0E8F7E102C005900D92AA34FA
:10018000B107D9F721E0AAE4B1E001C01D92A3387C
:10019000B207E1F70E94A5070C94BE0B0C94000077
:1001A000CF93DF93E2ECF0E020812F7D208320814C
:1001B0002F7E20832081277F2083C1ECD0E02881FF
:1001C0002B7F28832081246020832081226020834C
:1001D000E0ECF0E020812D7F20839B01AC0184E0E6
:1001E000220F331F441F551F8A95D1F760E074E238
:1001F00084EF90E00E94AA07215031093093C50096
:100200002093C40088818061888388818860888386
:1002100061E080E0DF91CF910C943F01CF93C82F34
:1002200061E080E00E94E3018091C00085FFFCCF87
:10023000C093C60060E080E0CF910C94E3010F937F
:100240001F93CF938C01C0E0F801EC0FF11D80816A
:10025000882321F00E940E01CF5FF6CFCF911F912E
:100260000F9108958091C00087FFFCCF8091C60058
:1002700008958091C000881F8827881F0895982FAF
:1002800097708695869586958130C1F120F08230F1
:1002900009F467C0089561110DC044B121E030E058
:1002A000B90102C0660F771F9A95E2F7CB018095DE
:1002B00084230DC0613069F444B121E030E0B9011C
:1002C00002C0660F771F9A95E2F7CB01842B84B9A1
:1002D0000895623009F076C044B121E030E0B90100
:1002E00002C0660F771F9A95E2F7CB01962F909583
:1002F000942394B995B1892B85B9089561110DC0E6
:1003000047B121E030E0B90102C0660F771F9A952E
:10031000E2F7CB01809584230DC0613069F447B1C9
:1003200021E030E0B90102C0660F771F9A95E2F72D
:10033000CB01842B87B90895623009F043C047B1DF
:1003400021E030E0B90102C0660F771F9A95E2F70D
:10035000CB01962F9095942397B998B1892B88B9A2
:10036000089561110DC04AB121E030E0B90102C029
:10037000660F771F9A95E2F7CB01809584230DC015
:10038000613069F44AB121E030E0B90102C0660F82
:10039000771F9A95E2F7CB01842B8AB908956230D2
:1003A00089F44AB121E030E0B90102C0660F771F3D
:1003B0009A95E2F7CB01962F909594239AB99BB129
:1003C000892B8BB90895982F977086958695869579
:1003D0008130E9F018F0823099F1089545B121E0BB
:1003E00030E061110AC0B90102C0660F771F9A950B
:1003F000E2F7CB018095842308C0B90102C0660FE3
:10040000771F9A95E2F7CB01842B85B9089548B1FF
:1004100021E030E061110AC0B90102C0660F771F08
:100420009A95E2F7CB018095842308C0B90102C0F8
:10043000660F771F9A95E2F7CB01842B88B9089550
:100440004BB121E030E061110AC0B90102C0660F72
:10045000771F9A95E2F7CB018095842308C0B901F4
:1004600002C0660F771F9A95E2F7CB01842B8BB9F8
:100470000895482F4770869586958695813039F086
:1004800020F08230B1F429B103C023B101C026B1FC
:1004900081E090E0042E02C0880F991F0A94E2F7D1
:1004A00030E08223932302C0959587954A95E2F721
:1004B000089580E00895813031F018F0823029F0FD
:1004C000089564B9089567B908956AB908958130A7
:1004D00031F018F0823029F0089565B9089568B9AF
:1004E00008956BB90895EAE7F0E080818068808321
:1004F000808184608083808182608083808181604C
:100500008083ECE7F0E080818F7780838081806456
:10051000808380818F7D8083089590917C00907F7F
:10052000892B80937C0080917A00806480937A008C
:1005300080917A0086FDFCCF80917800209179002F
:1005400090E0922B089590917C00907F892B80936E
:100550007C0080917A00806480937A0080917A0098
:1005600086FDFCCF609178008091790070E0782B57
:1005700080E090E00E94D10720E030E040EA5BE3B9
:100580000E9437080895CF93C82F682F617080E1CB
:100590000E94E301C1FB662760F981E10E94E3014B
:1005A000C2FB662760F982E10E94E301C3FB662774
:1005B00060F983E10E94E301C4FB662760F984E1EE
:1005C0000E94E301C5FB662760F985E10E94E30113
:1005D000C6FB662760F986E1CF910C94E30161E0E8
:1005E00080E10E943F0161E081E10E943F0161E002
:1005F00082E10E943F0161E083E10E943F0161E0EE
:1006000084E10E943F0161E085E10E943F0161E0D9
:1006100086E10E943F018FEF0C94C3028A3040F4C0
:10062000E82FF0E0E050FF4F808180950E94C302E8
:1006300060E080E00E94E30161E080E00C94E3016F
:1006400060E080E10E943F0161E081E10E943F01A2
:1006500060E875E280E090E00E94D0002FEF81EE2C
:1006600094E0215080409040E1F700C000000895E0
:100670000F931F93CF93DF9300E010E0D0E0C0E032
:100680000E9439018823C1F00E9432018230D9F0E2
:10069000833049F4D130D1F4EC2FF0E0E159FE4F32
:1006A000108281E01BC0D13089F4EC2FF0E0E159D9
:1006B000FE4F8083CF5F0BC08FE99FE00197F1F77A
:1006C00000C0000004C0D1E0C0E001C0D0E00336AB
:1006D000110519F00F5F1F4FD3CF80E0DF91CF914D
:1006E0001F910F9108958FE691E00895CF93C82F41
:1006F00060E080E00E94E3016C2F617082E00E9464
:10070000E301C1FB662760F983E00E94E301C2FBBD
:10071000662760F984E00E94E301C3FB662760F965
:1007200085E00E94E30160E081E00E94E30161E076
:1007300081E00E94E30185E08A95F1F7000060E026
:1007400081E00E94E3018FE891E00197F1F700C09A
:100750000000CF910895CF93C82F60E080E00E9401
:10076000E301C4FB662760F982E00E94E301C5FB58
:10077000662760F983E00E94E301C6FB662760F903
:1007800084E00E94E3016C2F661F6627661F85E0E8
:100790000E94E30160E081E00E94E30161E081E00A
:1007A0000E94E30185E08A95F1F7000060E081E0B6
:1007B0000E94E3018FE891E00197F1F700C000008B
:1007C0006C2F617082E00E94E301C1FB662760F933
:1007D00083E00E94E301C2FB662760F984E00E9487
:1007E000E301C3FB662760F985E00E94E30160E056
:1007F00081E00E94E30161E081E00E94E30195E075
:100800009A95F1F7000060E081E00E94E3018FE833
:1008100091E00197F1F700C00000CF910895CF93C8
:10082000C82F61E080E00E94E301C4FB662760F905
:1008300082E00E94E301C5FB662760F983E00E9425
:10084000E301C6FB662760F984E00E94E3016C2F98
:10085000661F6627661F85E00E94E30160E081E075
:100860000E94E30161E081E00E94E30185E08A9556
:10087000F1F7000060E081E00E94E3018FE891E081
:100880000197F1F700C000006C2F617082E00E94B8
:10089000E301C1FB662760F983E00E94E301C2FB2C
:1008A000662760F984E00E94E301C3FB662760F9D4
:1008B00085E00E94E30160E081E00E94E30161E0E5
:1008C00081E00E94E30195E09A95F1F7000060E075
:1008D00081E00E94E3018FE891E00197F1F700C009
:1008E0000000CF91089561E080E00E943F0161E047
:1008F00081E00E943F0161E082E00E943F0161E0EF
:1009000083E00E943F0161E084E00E943F0161E0DA
:1009100085E00E943F0160E081E00E94E3012FEF4B
:1009200089EF90E0215080409040E1F700C0000046
:1009300083E00E9476038FE19EE40197F1F700C007
:10094000000083E00E9476038FE193E00197F1F7C6
:1009500000C0000083E00E9476038FE193E00197DE
:10096000F1F700C0000082E00E94760388E20E9456
:10097000AB038FE193E00197F1F700C0000088E03E
:100980000E94AB038FE193E00197F1F700C00000F4
:1009900081E00E94AB038FE39FE10197F1F700C074
:1009A000000086E00E94AB038FE99FE00197F1F71A
:1009B00000C000008EE00E94AB038FE193E001973E
:1009C000F1F700C000000895CF93C82F842F90E462
:1009D000699F800D1124815480680E94AB038FE8C9
:1009E00091E00197F1F700C000008C2FCF910C949B
:1009F0000F040C940F040F931F93CF938C01842F3B
:100A000090E4699F800D1124815480680E94AB039B
:100A10008FE891E00197F1F700C00000C0E0F80115
:100A2000EC0FF11D8081882321F00E940F04CF5F1D
:100A3000F6CFCF911F910F9108950F931F93CF93EE
:100A40008C01C0E0F801EC0FF11D8081882321F0BA
:100A50000E940F04CF5FF6CFCF911F910F910895A1
:100A600081E00E94AB038FE39FE10197F1F700C0A3
:100A70000000089560E080E10E943F0161E081E1B3
:100A80000E943F0160E875E280E090E00E94D000A3
:100A90002FEF81EE94E0215080409040E1F700C0BC
:100AA000000010926E0108950F931F93CF93DF9370
:100AB00000E010E0C0E00E943901882399F00E9414
:100AC0003201873441F4CC2309F457C0C13009F016
:100AD00056C0C2E055C0813409F051C0C23009F09F
:100AE0004EC009C08FE99FE00197F1F700C00000F8
:100AF000C33009F04CC0C0E0D0E0D63008F045C0AB
:100B00000E9439018823C9F30E9432018C32F1F42A
:100B1000DF5FD330A9F3D53099F3D23031F4EC2F25
:100B2000F0E0E65BFE4F108E07C0D43039F4EC2FB6
:100B3000F0E0E65BFE4F1082C0E0E2CFD630D9F4A1
:100B4000EC2FF0E0EA5AFE4F10821FC02C2F30E04D
:100B5000E1E0EC0FD901A65BBE4FD13021F45896ED
:100B60008C93CE2FCDCFD43010F48C9302C01C9632
:100B70008C93CE2FC2CFC0E0C0CFC1E001C0C0E097
:100B8000073E93E0190739F409C081E008C0073E29
:100B900083E0180719F00F5F1F4F8DCF80E0DF91C2
:100BA000CF911F910F91089525E2EAE4F1E0DC0175
:100BB00001900D922A95E1F7089561E085E00E9489
:100BC0003F0161E085E00E94E3012FEF81EE94E0B8
:100BD000215080409040E1F700C0000060E085E0D7
:100BE0000E94E3012FEF81EE94E02150804090407D
:100BF000E1F700C00000E5CF0E9420032FEF81EE57
:100C000094E0215080409040E1F700C000000E9435
:100C100038038823E1F30E9473030E941F0186E4D6
:100C200091E00E941F01F3CF2FEF81EE94E021505D
:100C300080409040E1F700C0000060E080E00E944A
:100C40003F0160E081E00E943F010E94EF0280E0EE
:100C50000E940E03D0E0C0E080E00E9439028130A3
:100C600051F4C111C1508C2F0E940E0380E00E94EC
:100C700039028130D9F381E00E9439028130A9F430
:100C80008FE59AEE0197F1F700C0000081E00E9425
:100C90003902813009F7D111DFCFC53008F4CF5FB9
:100CA0008C2F0E940E03D1E0D7CF8FE39CE90197F0
:100CB000F1F700C0000081E00E9439028111CCCF21
:100CC000D0E0CACF2FEF81EE94E0215080409040D9
:100CD000E1F700C000000E9473020E94730461E00B
:100CE00080E10E943F0161E081E10E943F0160E0FC
:100CF00080E10E94E30160E081E10C94E30160E0A7
:100D000080E10E94E30161E081E10C94E30161E094
:100D100080E10E94E30160E081E10C94E30160E086
:100D200080E10E94E30160E081E10C94E3010E9414
:100D3000A30220E030E048EC52E40E943708089516
:100D4000CF92DF92EF92FF920F931F93CF93DF9397
:100D5000CDB7DEB72A970FB6F894DEBF0FBECDBF72
:100D60006B017C0141E062E08AE091E00E94FB04BB
:100D70008E010F5F1F4F22E030E045E050E0C701D9
:100D8000B6010E94F5080E941D058FED0E94F9042E
:100D900083E40E94F9042A960FB6F894DEBF0FBED2
:100DA000CDBFDF91CF911F910F91FF90EF90DF901A
:100DB000CF9008951F93CF93DF9300D000D000D041
:100DC000CDB7DEB7182F41E061E08FE091E00E94DF
:100DD000FB044AE050E0BE016F5F7F4F812F90E03F
:100DE0000E9415090E941D058FED0E94F90483E4FD
:100DF0000E94F90426960FB6F894DEBF0FBECDBF51
:100E0000DF91CF911F9108950E94620687E10E94B1
:100E1000DA0680E00E9497066B017C010E94A00622
:100E200020E030E048EB51E4C701B6010E943208EF
:100E300018161CF40E9487060FC020E030E048EB33
:100E400051E4C701B6010E94CC0787FF03C00E948E
:100E50007F0602C00E948F062FEF83ED90E32150A2
:100E600080409040E1F700C00000D3CF0E9473049F
:100E700044E061E08AE191E00E94FB040895CF9391
:100E8000DF93CDB7DEB7CA54D1090FB6F894DEBFF1
:100E90000FBECDBF0E9473040E943A052FEF81EE72
:100EA00094E0215080409040E1F700C000000E9493
:100EB00054058823C9F0CE0186960E94D40585E2A8
:100EC000FE01B696DE01119601900D928A95E1F72A
:100ED00041E061E0CE0101960E94FB0441E062E046
:100EE000CE010D960E94FB042FEF83ED90E321507D
:100EF00080409040E1F7D9CF60E080E10E943F015F
:100F000061E081E10E943F0160E875E280E090E0ED
:100F10000E94D0002FEF81EE94E02150804090405D
:100F2000E1F700C000000E9439018823E1F30E942C
:100F30003201823019F487E291E004C0833099F7DE
:100F400089E391E00E941F01EECF0E94FC0580E042
:100F500090E00895A1E21A2EAA1BBB1BFD010DC053
:100F6000AA1FBB1FEE1FFF1FA217B307E407F50759
:100F700020F0A21BB30BE40BF50B661F771F881F35
:100F8000991F1A9469F760957095809590959B01CB
:100F9000AC01BD01CF0108950E940E0808F481E064
:100FA0000895E89409C097FB3EF49095809570955C
:100FB00061957F4F8F4F9F4F9923A9F0F92F96E9A5
:100FC000BB279395F695879577956795B795F1111A
:100FD000F8CFFAF4BB0F11F460FF1BC06F5F7F4FB7
:100FE0008F4F9F4F16C0882311F096E911C07723C9
:100FF00021F09EE8872F762F05C0662371F096E8D2
:10100000862F70E060E02AF09A95660F771F881FA0
:10101000DAF7880F9695879597F90895990F000844
:10102000550FAA0BE0E8FEEF16161706E807F907BA
:10103000C0F012161306E407F50798F0621B730B55
:10104000840B950B39F40A2661F0232B242B252BD6
:1010500021F408950A2609F4A140A6958FEF811D79
:10106000811D08950E940E0808F48FEF08950E94D4
:101070004A080C94BB080E94AD0838F00E94B408DE
:1010800020F0952311F00C94A4080C94AA081124C4
:101090000C94EF080E94CC0870F3959FC1F3950F54
:1010A00050E0551F629FF001729FBB27F00DB11DEC
:1010B000639FAA27F00DB11DAA1F649F6627B00D7C
:1010C000A11D661F829F2227B00DA11D621F739F65
:1010D000B00DA11D621F839FA00D611D221F749F73
:1010E0003327A00D611D231F849F600D211D822FBA
:1010F000762F6A2F11249F5750409AF0F1F08823E1
:101100004AF0EE0FFF1FBB1F661F771F881F91500D
:101110005040A9F79E3F510580F00C94A4080C9410
:10112000EF085F3FE4F3983ED4F386957795679593
:10113000B795F795E7959F5FC1F7FE2B880F911D37
:101140009695879597F9089597F99F6780E870E0DD
:1011500060E008959FEF80EC089500240A9416162D
:10116000170618060906089500240A941216130695
:10117000140605060895092E0394000C11F4882323
:1011800052F0BB0F40F4BF2B11F460FF04C06F5F3F
:101190007F4F8F4F9F4F089557FD9058440F551F15
:1011A00059F05F3F71F04795880F97FB991F61F0E9
:1011B0009F3F79F087950895121613061406551F60
:1011C000F2CF4695F1DF08C0161617061806991FCC
:1011D000F1CF86957105610508940895E894BB27C1
:1011E00066277727CB0197F90895EF920F931F9306
:1011F000CF93DF93E80147FD02C034E001C034E142
:10120000042E000C550B57FF03C051954195510911
:10121000E32E022F242FAE010E944509CE01DF915B
:10122000CF911F910F91EF9008954532510520F411
:10123000423010F00C942009FB011082CB0108957C
:10124000BB274A3031F4992322F4BDE29095819571
:101250009F4F0C942C09BB27FB015527AA27880F09
:10126000991FAA1FA41710F0A41B83955051B9F71A
:10127000A05DAA3308F0A95DA193009779F7B11199
:10128000B1931192CB010C94770BA9E0B0E0EBE4A1
:10129000F9E00C948D0B6A01122FB02E2BE320176E
:1012A00020F0FF24F394F00E02C02CE3F22E0F2D59
:1012B00027E0AE014F5F5F4F0E949F0ABC0149814A
:1012C000842F8970813031F0E1FC06C0E0FE06C059
:1012D00090E205C09DE203C09BE201C090E05E2D5C
:1012E000507143FF3CC0911102C083E001C084E013
:1012F000811718F4212F281B01C020E051110BC0C9
:10130000F601822F30E2882319F031938150FBCF10
:10131000C20ED11C20E0992329F0D6019C93F6013E
:1013200031966F01C6010396E2FE0AC03EE4D60183
:101330003C9341E411964C93119712963C9306C04E
:101340003EE6F601308341E641833283FC01322FD1
:1013500040E2332309F442C041933150FACF42FFB7
:1013600044C0911102C083E001C084E0811718F4E9
:10137000212F281B01C020E051110BC0F601822F44
:1013800030E2882319F031938150FBCFC20ED11C7B
:1013900020E0992329F0D6019C93F60131966F0144
:1013A000C6010396E2FE0BC039E4D6013C933EE44D
:1013B00011963C93119736E412963C9307C039E698
:1013C000F60130833EE6318336E63283FC01322F6C
:1013D00040E2332319F041933150FBCFFC01E20F7F
:1013E000F11D10828EEF9FEFA6C021E030E0911139
:1013F00002C020E030E0161617061CF4FB013196FF
:1014000002C0E1E0F0E02E0F3F1FBB2021F0EB2DEA
:10141000F0E0319602C0E0E0F0E02E0F3F1FE12F38
:10142000F0E02E173F071CF4121B212F01C020E013
:101430008E2D887159F4F601822F30E2882319F03D
:1014400031938150FBCFC20ED11C20E0992329F0AB
:10145000D6019C93F60131966F0151110BC0F60134
:10146000822F90E3882319F091938150FBCFC20E15
:10147000D11C20E00F2D060F9A81342F307144FFCC
:1014800003C0913309F40150101624F4093018F008
:1014900008E001C001E0AB0177FF02C040E050E08E
:1014A000FB01E41BF50BA1E0B0E0AC0FBD1FEA0FA0
:1014B000FB1F8EE2A82E4B01801A91080B2D10E025
:1014C0001195019511094F3FBFEF5B0721F4D6013C
:1014D000AC9211966D01641775072CF08416950671
:1014E00014F4818101C080E3415051093196D60145
:1014F00011967D014017510724F0D6018C936701A6
:10150000E2CF6417750739F4963320F4953319F454
:10151000311101C081E3F6018083F701822F90E24F
:10152000882319F091938150FBCFF701E20FF11D51
:10153000108280E090E02996ECE00C94A90B283012
:1015400008F027E03327DA01990F311D87FD9160FC
:1015500000966105710539F432602E5F3D9330E3EA
:101560002A95E1F708959F3F30F0803871056105B5
:1015700009F03C5F3C5F3D93913008F08068911D1D
:10158000DF93CF931F930F93FF92EF92192F987FC2
:101590009695E92F96959695E90FFF27EE53FF4F05
:1015A00099273327EE24FF24A701E701059008942B
:1015B000079428F4360FE71EF81E491F511D660FC9
:1015C000771F881F991F0694A1F70590079428F4A8
:1015D000E70EF81E491F561FC11D770F881F991F60
:1015E000661F0694A1F70590079428F4F80E491F8A
:1015F000561FC71FD11D880F991F661F771F06949E
:10160000A1F70590079420F4490F561FC71FD81F54
:10161000990F661F771F881F0694A9F7849110956C
:10162000177041F0D695C79557954795F794E7946D
:101630001A95C1F7E8E6F0E0689415901591359198
:101640006591959105907FE27395E118F10A430B3E
:10165000560BC90BD009C0F7E10CF11E431F561FF2
:10166000C91FD01D7EF4703311F48A95E6CFE8943B
:10167000015030F0080F0AF40027021708F4202F59
:101680002395022F7A3328F079E37D932A95E9F7A1
:1016900010C07D932A9589F606949795679537959E
:1016A00017951794E118F10A430B560BC90BD00993
:1016B00098F023957E9173957A3308F070E37C93CC
:1016C0002013B8F77E9170617D9330F0839571E3BC
:1016D0007D9370E32A95E1F71124EF90FF900F912D
:1016E0001F91CF91DF91992787FD90950895DC0197
:1016F000FC01672F71917723E1F7329704C07C9149
:101700006D9370836291AE17BF07C8F308952F924F
:101710003F924F925F926F927F928F929F92AF9281
:10172000BF92CF92DF92EF92FF920F931F93CF93CE
:10173000DF93CDB7DEB7CA1BDB0B0FB6F894DEBF65
:101740000FBECDBF09942A88398848885F846E848B
:101750007D848C849B84AA84B984C884DF80EE80D5
:10176000FD800C811B81AA81B981CE0FD11D0FB6DE
:10177000F894DEBF0FBECDBFED010895F894FFCF02
:101780003F065B4F666D7D077F6F74656D3A007332
:10179000657420706F696E743A00477261676820E3
:1017A00053797374656D007374617274206F662071
:1017B0007061636B65740A0D00656E64206F66204E
:0A17C0007061636B65740A0D000090
:00000001FF
