:100000000C94B1000C94C6000C94C6000C94C6006D
:100010000C94C6000C94C6000C94C6000C94C60048
:100020000C94C6000C94C6000C94C6000C94C60038
:100030000C94C6000C94C6000C94C6000C94C60028
:100040000C94C6000C94C6000C94C6000C94C60018
:100050000C94C6000C94C6000C94C6000C94C60008
:100060000C94C6000C94C60000407A10F35A00A00D
:10007000724E18090010A5D4E80000E87648170071
:1000800000E40B54020000CA9A3B000000E1F505B1
:10009000000080969800000040420F000000A086FB
:1000A00001000000102700000000E803000000002D
:1000B0006400000000000A000000000001000000D1
:1000C00000002C76D888DC674F0823DFC1DFAE59EB
:1000D000E1B1B796E5E3E453C63AE651997696E87E
:1000E000E6C28426EB898C9B62ED407C6FFCEFBC02
:1000F0009C9F40F2BAA56FA5F490055A2AF75C932D
:100100006B6CF9676DC11BFCE0E40D47FEF520E662
:10011000B500D0ED902E0300943577050080841E45
:10012000080000204E0A000000C80C333333330FA0
:10013000986E12831141EF8D2114893BE65516CF3D
:10014000FEE6DB18D1844B381BF77C1D901DA4BB49
:10015000E424203284725E228100C9F124ECA1E5FE
:100160003D2711241FBECFEFD8E0DEBFCDBF11E089
:10017000A0E0B1E0E0E6F3E102C005900D92A83204
:10018000B107D9F70E94B7050C94AE090C94000092
:10019000982F97708695869586958130C1F120F0CD
:1001A000823009F467C0089561110DC044B121E0A7
:1001B00030E0B90102C0660F771F9A95E2F7CB01D4
:1001C000809584230DC0613069F444B121E030E0B2
:1001D000B90102C0660F771F9A95E2F7CB01842B15
:1001E00084B90895623009F076C044B121E030E06E
:1001F000B90102C0660F771F9A95E2F7CB01962FDF
:100200009095942394B995B1892B85B9089561117E
:100210000DC047B121E030E0B90102C0660F771F81
:100220009A95E2F7CB01809584230DC0613069F483
:1002300047B121E030E0B90102C0660F771F9A95FF
:10024000E2F7CB01842B87B90895623009F043C0EF
:1002500047B121E030E0B90102C0660F771F9A95DF
:10026000E2F7CB01962F9095942397B998B1892BFB
:1002700088B9089561110DC04AB121E030E0B9019B
:1002800002C0660F771F9A95E2F7CB018095842311
:100290000DC0613069F44AB121E030E0B90102C01B
:1002A000660F771F9A95E2F7CB01842B8AB90895E0
:1002B000623089F44AB121E030E0B90102C0660F32
:1002C000771F9A95E2F7CB01962F909594239AB9D0
:1002D0009BB1892B8BB90895982F97708695869539
:1002E00086958130E9F018F0823099F1089545B192
:1002F00021E030E061110AC0B90102C0660F771F2A
:100300009A95E2F7CB018095842308C0B90102C019
:10031000660F771F9A95E2F7CB01842B85B9089574
:1003200048B121E030E061110AC0B90102C0660F96
:10033000771F9A95E2F7CB018095842308C0B90115
:1003400002C0660F771F9A95E2F7CB01842B88B91C
:1003500008954BB121E030E061110AC0B90102C03B
:10036000660F771F9A95E2F7CB018095842308C02A
:10037000B90102C0660F771F9A95E2F7CB01842B73
:100380008BB90895482F477086958695869581305C
:1003900039F020F08230B1F429B103C023B101C09B
:1003A00026B181E090E0042E02C0880F991F0A94C4
:1003B000E2F730E08223932302C0959587954A9512
:1003C000E2F7089580E00895813031F018F082302E
:1003D00029F0089564B9089567B908956AB9089530
:1003E000813031F018F0823029F0089565B9089510
:1003F00068B908956BB90895EAE7F0E080818068F4
:10040000808380818460808380818260808380811A
:1004100081608083ECE7F0E080818F77808380814A
:100420008064808380818F7D8083089590917C009B
:10043000907F892B80937C0080917A0080648093E8
:100440007A0080917A0086FDFCCF8091780020911F
:10045000790090E0922B089590917C00907F892BF9
:1004600080937C0080917A00806480937A008091F0
:100470007A0086FDFCCF609178008091790070E071
:10048000782B80E090E00E94C10520E030E040EA57
:100490005BE30E9427060895CF93C82F682F6170F1
:1004A00080E10E946C01C1FB662760F981E10E9436
:1004B0006C01C2FB662760F982E10E946C01C3FBFC
:1004C000662760F983E10E946C01C4FB662760F92E
:1004D00084E10E946C01C5FB662760F985E10E94FA
:1004E0006C01C6FB662760F986E1CF910C946C0124
:1004F00061E080E10E94C80061E081E10E94C800E3
:1005000061E082E10E94C80061E083E10E94C800CE
:1005100061E084E10E94C80061E085E10E94C800BA
:1005200061E086E10E94C8008FEF0C944C028A3093
:1005300040F4E82FF0E0E050FF4F808180950E946A
:100540004C0260E080E00E946C0161E080E00C946D
:100550006C01CF93C82F60E080E00E946C016C2F8B
:10056000617082E00E946C01C1FB662760F983E044
:100570000E946C01C2FB662760F984E00E946C0156
:10058000C3FB662760F985E00E946C0160E081E0B2
:100590000E946C0161E081E00E946C0185E08A9517
:1005A000F1F7000060E081E00E946C018FE891E0CB
:1005B0000197F1F700C00000CF910895CF93C82FA5
:1005C00060E080E00E946C01C4FB662760F982E075
:1005D0000E946C01C5FB662760F983E00E946C01F4
:1005E000C6FB662760F984E00E946C016C2F661FD1
:1005F0006627661F85E00E946C0160E081E00E9432
:100600006C0161E081E00E946C0185E08A95F1F760
:10061000000060E081E00E946C018FE891E00197AA
:10062000F1F700C000006C2F617082E00E946C0145
:10063000C1FB662760F983E00E946C01C2FB66275C
:1006400060F984E00E946C01C3FB662760F985E0D5
:100650000E946C0160E081E00E946C0161E081E039
:100660000E946C0195E09A95F1F7000060E081E04E
:100670000E946C018FE891E00197F1F700C0000043
:10068000CF910895CF93C82F61E080E00E946C0164
:10069000C4FB662760F982E00E946C01C5FB6627F7
:1006A00060F983E00E946C01C6FB662760F984E074
:1006B0000E946C016C2F661F6627661F85E00E94F2
:1006C0006C0160E081E00E946C0161E081E00E94C9
:1006D0006C0185E08A95F1F7000060E081E00E94FE
:1006E0006C018FE891E00197F1F700C000006C2FDA
:1006F000617082E00E946C01C1FB662760F983E0B3
:100700000E946C01C2FB662760F984E00E946C01C4
:10071000C3FB662760F985E00E946C0160E081E020
:100720000E946C0161E081E00E946C0195E09A9565
:10073000F1F7000060E081E00E946C018FE891E039
:100740000197F1F700C00000CF91089561E080E0CB
:100750000E94C80061E081E00E94C80061E082E080
:100760000E94C80061E083E00E94C80061E084E06C
:100770000E94C80061E085E00E94C80060E081E05E
:100780000E946C012FEF89EF90E021508040904053
:10079000E1F700C0000083E00E94A9028FE19EE41F
:1007A0000197F1F700C0000083E00E94A9028FE1E9
:1007B00093E00197F1F700C0000083E00E94A902D6
:1007C0008FE193E00197F1F700C0000082E00E9402
:1007D000A90288E20E94DE028FE193E00197F1F71F
:1007E00000C0000088E00E94DE028FE193E00197E4
:1007F000F1F700C0000081E00E94DE028FE39FE17C
:100800000197F1F700C0000086E00E94DE028FE948
:100810009FE00197F1F700C000008EE00E94DE0229
:100820008FE193E00197F1F700C000000895CF93A6
:10083000C82F842F90E4699F800D11248154806813
:100840000E94DE028FE891E00197F1F700C00000FE
:100850008C2FCF910C9442030C9442030F931F935F
:10086000CF938C01842F90E4699F800D11248154D3
:1008700080680E94DE028FE891E00197F1F700C0E6
:100880000000C0E0F801EC0FF11D8081882321F009
:100890000E944203CF5FF6CFCF911F910F91089531
:1008A0000F931F93CF938C01C0E0F801EC0FF11D63
:1008B0008081882321F00E944203CF5FF6CFCF9141
:1008C0001F910F91089581E00E94DE028FE39FE166
:1008D0000197F1F700C00000089561E085E00E94F3
:1008E000C80061E085E00E946C012FEF81EE94E08A
:1008F000215080409040E1F700C0000060E085E0BA
:100900000E946C012FEF81EE94E0215080409040D6
:10091000E1F700C00000E5CF2FEF81EE94E0215019
:1009200080409040E1F700C0000060E080E00E945D
:10093000C80060E081E00E94C8000E94780280E068
:100940000E949702D0E0C0E080E00E94C2018130A6
:1009500051F4C111C1508C2F0E94970280E00E9477
:10096000C2018130D9F381E00E94C2018130A9F433
:100970008FE59AEE0197F1F700C0000081E00E9438
:10098000C201813009F7D111DFCFC53008F4CF5F44
:100990008C2F0E949702D1E0D7CF8FE39CE901977B
:1009A000F1F700C0000081E00E94C2018111CCCFAC
:1009B000D0E0CACF2FEF81EE94E0215080409040EC
:1009C000E1F700C000000E94FC010E94A60361E064
:1009D00080E10E94C80061E081E10E94C80060E0FF
:1009E00080E10E946C0160E081E10C946C0160E0A8
:1009F00080E10E946C0161E081E10C946C0161E096
:100A000080E10E946C0160E081E10C946C0160E087
:100A100080E10E946C0160E081E10C946C010E9415
:100A20002C0220E030E048EC52E40E9427060895B2
:100A3000CF92DF92EF92FF920F931F93CF93DF93AA
:100A4000CDB7DEB72A970FB6F894DEBF0FBECDBF85
:100A50006B017C0141E062E08AE091E00E942E049B
:100A60008E010F5F1F4F22E030E045E050E0C701EC
:100A7000B6010E94E5060E9450048FED0E942C04EE
:100A800083E40E942C042A960FB6F894DEBF0FBEB2
:100A9000CDBFDF91CF911F910F91FF90EF90DF902D
:100AA000CF9008951F93CF93DF9300D000D000D054
:100AB000CDB7DEB7182F41E061E08FE091E00E94F2
:100AC0002E044AE050E0BE016F5F7F4F812F90E01F
:100AD0000E9405070E9450048FED0E942C0483E4BD
:100AE0000E942C0426960FB6F894DEBF0FBECDBF31
:100AF000DF91CF911F9108950E94DA0487E10E944F
:100B0000520580E00E940F056B017C010E941805D0
:100B100020E030E048EB51E4C701B6010E94220614
:100B200018161CF40E94FF040FC020E030E048EBD0
:100B300051E4C701B6010E94BC0587FF03C00E94B3
:100B4000F70402C00E9407052FEF83ED90E32150C8
:100B500080409040E1F700C00000D3CF0E94A60380
:100B600044E061E08AE191E00E942E0408950E9431
:100B70007C0580E090E008950E94FE0508F481E085
:100B80000895E89409C097FB3EF490958095709580
:100B900061957F4F8F4F9F4F9923A9F0F92F96E9C9
:100BA000BB279395F695879577956795B795F1113E
:100BB000F8CFFAF4BB0F11F460FF1BC06F5F7F4FDB
:100BC0008F4F9F4F16C0882311F096E911C07723ED
:100BD00021F09EE8872F762F05C0662371F096E8F6
:100BE000862F70E060E02AF09A95660F771F881FC5
:100BF000DAF7880F9695879597F90895990F000869
:100C0000550FAA0BE0E8FEEF16161706E807F907DE
:100C1000C0F012161306E407F50798F0621B730B79
:100C2000840B950B39F40A2661F0232B242B252BFA
:100C300021F408950A2609F4A140A6958FEF811D9D
:100C4000811D08950E94FE0508F48FEF08950E940B
:100C50003A060C94AB060E949D0638F00E94A4064A
:100C600020F0952311F00C9494060C949A0611240C
:100C70000C94DF060E94BC0670F3959FC1F3950F9C
:100C800050E0551F629FF001729FBB27F00DB11D10
:100C9000639FAA27F00DB11DAA1F649F6627B00DA0
:100CA000A11D661F829F2227B00DA11D621F739F89
:100CB000B00DA11D621F839FA00D611D221F749F97
:100CC0003327A00D611D231F849F600D211D822FDE
:100CD000762F6A2F11249F5750409AF0F1F0882305
:100CE0004AF0EE0FFF1FBB1F661F771F881F915032
:100CF0005040A9F79E3F510580F00C9494060C9447
:100D0000DF065F3FE4F3983ED4F3869577956795C9
:100D1000B795F795E7959F5FC1F7FE2B880F911D5B
:100D20009695879597F9089597F99F6780E870E001
:100D300060E008959FEF80EC089500240A94161651
:100D4000170618060906089500240A9412161306B9
:100D5000140605060895092E0394000C11F4882347
:100D600052F0BB0F40F4BF2B11F460FF04C06F5F63
:100D70007F4F8F4F9F4F089557FD9058440F551F39
:100D800059F05F3F71F04795880F97FB991F61F00D
:100D90009F3F79F087950895121613061406551F84
:100DA000F2CF4695F1DF08C0161617061806991FF0
:100DB000F1CF86957105610508940895E894BB27E5
:100DC00066277727CB0197F90895EF920F931F932A
:100DD000CF93DF93E80147FD02C034E001C034E166
:100DE000042E000C550B57FF03C051954195510936
:100DF000E32E022F242FAE010E943507CE01DF9192
:100E0000CF911F910F91EF9008954532510520F435
:100E1000423010F00C941007FB011082CB010895B2
:100E2000BB274A3031F4992322F4BDE29095819595
:100E30009F4F0C941C07BB27FB015527AA27880F3F
:100E4000991FAA1FA41710F0A41B83955051B9F73E
:100E5000A05DAA3308F0A95DA193009779F7B111BD
:100E6000B1931192CB010C946709A9E0B0E0EBE3D8
:100E7000F7E00C947D096A01122FB02E2BE32017A6
:100E800020F0FF24F394F00E02C02CE3F22E0F2D7D
:100E900027E0AE014F5F5F4F0E948F08BC01498180
:100EA000842F8970813031F0E1FC06C0E0FE06C07D
:100EB00090E205C09DE203C09BE201C090E05E2D80
:100EC000507143FF3CC0911102C083E001C084E037
:100ED000811718F4212F281B01C020E051110BC0ED
:100EE000F601822F30E2882319F031938150FBCF35
:100EF000C20ED11C20E0992329F0D6019C93F60163
:100F000031966F01C6010396E2FE0AC03EE4D601A7
:100F10003C9341E411964C93119712963C9306C072
:100F20003EE6F601308341E641833283FC01322FF5
:100F300040E2332309F442C041933150FACF42FFDB
:100F400044C0911102C083E001C084E0811718F40D
:100F5000212F281B01C020E051110BC0F601822F68
:100F600030E2882319F031938150FBCFC20ED11C9F
:100F700020E0992329F0D6019C93F60131966F0168
:100F8000C6010396E2FE0BC039E4D6013C933EE471
:100F900011963C93119736E412963C9307C039E6BC
:100FA000F60130833EE6318336E63283FC01322F90
:100FB00040E2332319F041933150FBCFFC01E20FA3
:100FC000F11D10828EEF9FEFA6C021E030E091115D
:100FD00002C020E030E0161617061CF4FB01319623
:100FE00002C0E1E0F0E02E0F3F1FBB2021F0EB2D0F
:100FF000F0E0319602C0E0E0F0E02E0F3F1FE12F5D
:10100000F0E02E173F071CF4121B212F01C020E037
:101010008E2D887159F4F601822F30E2882319F061
:1010200031938150FBCFC20ED11C20E0992329F0CF
:10103000D6019C93F60131966F0151110BC0F60158
:10104000822F90E3882319F091938150FBCFC20E39
:10105000D11C20E00F2D060F9A81342F307144FFF0
:1010600003C0913309F40150101624F4093018F02C
:1010700008E001C001E0AB0177FF02C040E050E0B2
:10108000FB01E41BF50BA1E0B0E0AC0FBD1FEA0FC4
:10109000FB1F8EE2A82E4B01801A91080B2D10E049
:1010A0001195019511094F3FBFEF5B0721F4D60160
:1010B000AC9211966D01641775072CF08416950695
:1010C00014F4818101C080E3415051093196D60169
:1010D00011967D014017510724F0D6018C936701CA
:1010E000E2CF6417750739F4963320F4953319F479
:1010F000311101C081E3F6018083F701822F90E274
:10110000882319F091938150FBCFF701E20FF11D75
:10111000108280E090E02996ECE00C949909283048
:1011200008F027E03327DA01990F311D87FD916020
:1011300000966105710539F432602E5F3D9330E30E
:101140002A95E1F708959F3F30F0803871056105D9
:1011500009F03C5F3C5F3D93913008F08068911D41
:10116000DF93CF931F930F93FF92EF92192F987FE6
:101170009695E92F96959695E90FFF27EE53FF4F29
:1011800099273327EE24FF24A701E701059008944F
:10119000079428F4360FE71EF81E491F511D660FED
:1011A000771F881F991F0694A1F70590079428F4CC
:1011B000E70EF81E491F561FC11D770F881F991F84
:1011C000661F0694A1F70590079428F4F80E491FAE
:1011D000561FC71FD11D880F991F661F771F0694C2
:1011E000A1F70590079420F4490F561FC71FD81F79
:1011F000990F661F771F881F0694A9F78491109591
:10120000177041F0D695C79557954795F794E79491
:101210001A95C1F7E8E6F0E06894159015913591BC
:101220006591959105907FE27395E118F10A430B62
:10123000560BC90BD009C0F7E10CF11E431F561F16
:10124000C91FD01D7EF4703311F48A95E6CFE8945F
:10125000015030F0080F0AF40027021708F4202F7D
:101260002395022F7A3328F079E37D932A95E9F7C5
:1012700010C07D932A9589F60694979567953795C2
:1012800017951794E118F10A430B560BC90BD009B7
:1012900098F023957E9173957A3308F070E37C93F0
:1012A0002013B8F77E9170617D9330F0839571E3E0
:1012B0007D9370E32A95E1F71124EF90FF900F9151
:1012C0001F91CF91DF91992787FD90950895DC01BB
:1012D000FC01672F71917723E1F7329704C07C916D
:1012E0006D9370836291AE17BF07C8F308952F9274
:1012F0003F924F925F926F927F928F929F92AF92A6
:10130000BF92CF92DF92EF92FF920F931F93CF93F2
:10131000DF93CDB7DEB7CA1BDB0B0FB6F894DEBF89
:101320000FBECDBF09942A88398848885F846E84AF
:101330007D848C849B84AA84B984C884DF80EE80F9
:10134000FD800C811B81AA81B981CE0FD11D0FB602
:10135000F894DEBF0FBECDBFED010895F894FFCF26
:101360003F065B4F666D7D077F6F74656D3A007356
:10137000657420706F696E743A0047726167682007
:0813800053797374656D0000E0
:00000001FF
