:100000000C94B1000C94CE000C94CE000C94CE0055
:100010000C94CE000C94CE000C94CE000C94CE0028
:100020000C94CE000C94CE000C94CE000C94CE0018
:100030000C94CE000C94CE000C94CE000C94CE0008
:100040000C94CE000C94CE000C94CE000C94CE00F8
:100050000C94CE000C94CE000C94CE000C94CE00E8
:100060000C94CE000C94CE0000407A10F35A00A0FD
:10007000724E18090010A5D4E80000E87648170071
:1000800000E40B54020000CA9A3B000000E1F505B1
:10009000000080969800000040420F000000A086FB
:1000A00001000000102700000000E803000000002D
:1000B0006400000000000A000000000001000000D1
:1000C00000002C76D888DC674F0823DFC1DFAE59EB
:1000D000E1B1B796E5E3E453C63AE651997696E87E
:1000E000E6C28426EB898C9B62ED407C6FFCEFBC02
:1000F0009C9F40F2BAA56FA5F490055A2AF75C932D
:100100006B6CF9676DC11BFCE0E40D47FEF520E662
:10011000B500D0ED902E0300943577050080841E45
:10012000080000204E0A000000C80C333333330FA0
:10013000986E12831141EF8D2114893BE65516CF3D
:10014000FEE6DB18D1844B381BF77C1D901DA4BB49
:10015000E424203284725E228100C9F124ECA1E5FE
:100160003D2711241FBECFEFD8E0DEBFCDBF18E082
:10017000A0E0B1E0ECE5FEE102C005900D92AA3FDF
:10018000B107D9F729E0AAEFB8E001C01D92A33367
:10019000B207E1F70E94FA090C942C0F0C940000AE
:1001A000CF93DF93E2ECF0E020812F7D208320814C
:1001B0002F7E20832081277F2083C1ECD0E02881FF
:1001C0002B7F28832081246020832081226020834C
:1001D000E0ECF0E020812D7F20839B01AC0184E0E6
:1001E000220F331F441F551F8A95D1F760E074E238
:1001F00084EF90E00E94FF09215031093093C5003F
:100200002093C40088818061888388818860888386
:1002100061E080E0DF91CF910C946102CF93C82F11
:1002200061E080E00E9405038091C00085FFFCCF63
:10023000C093C60060E080E0CF910C9405030F935B
:100240001F93CF938C01C0E0F801EC0FF11D80816A
:10025000882321F00E940E01CF5FF6CFCF911F912E
:100260000F9108950F931F93CF938C01C0E0F80175
:10027000EC0FF11D8081882321F00E940E01CF5FD9
:10028000F6CF8AE00E940E018DE0CF911F910F9171
:100290000C940E018091C00087FFFCCF8091C600B6
:1002A00008958091C000881F8827881F0895CF93E4
:1002B000C82F8CB5411102C0877F01C088608CBDFA
:1002C0008CB5611102C08F7E01C080618CBDC730CA
:1002D000A1F460E083E00E94610260E085E00E949A
:1002E000610260E082E00E94610261E084E00E94BD
:1002F00061028CB58F7E8CBD1EC061E083E00E94E0
:10030000610261E085E00E94610260E084E00E9499
:1003100061028CB580618CBD8DB5C43028F48E7FB0
:100320008DBD8CB58C7F05C081608DBD8CB58C7FFB
:10033000C370C82BCCBD8CB580648CBDCF910895A3
:100340008EBD0DB407FEFDCF08958EBD0DB407FE22
:10035000FDCF8EB50895E9EBF0E080818C7F80833E
:1003600088E48093B800ECEBF0E0808184608083C7
:10037000089594EA9093BC009091BC0097FFFCCF45
:100380009091B900987F983011F080E008958093A3
:10039000BB0084E88093BC008091BC0087FFFCCF49
:1003A0008091B900887F883111F0803471F781E045
:1003B00008958093BB0084E88093BC008091BC00CA
:1003C00087FFFCCF9091B900987F81E0983109F0C8
:1003D00080E0089584EC8093BC008091BC0087FF8E
:1003E000FCCF8091BB00089584E88093BC0080918D
:1003F000BC0087FFFCCF8091BB000895FF920F9354
:100400001F93CF93DF93F62E072F142F880F0E9490
:10041000B9018130A9F4CF2DD02FCE01810F911DCC
:100420008C01C017D10739F089910E94D901813020
:10043000C1F381E001C080E094E99093BC0001C069
:1004400081E091E08927DF91CF911F910F91FF907B
:100450000895CF92DF92EF92FF921F93CF93DF9395
:100460006B01C42F880F81600E94B9018130D1F4E3
:1004700010E0D0E02197812F90E07601E80EF91E80
:100480008C179D0734F40E94EA01F70180831F5FF7
:10049000F2CF0E94F401F701808384E98093BC00CD
:1004A00080E001C081E091E08927DF91CF911F9129
:1004B000FF90EF90DF90CF90089584E98093BC0087
:1004C0000895982F97708695869586958130C1F10D
:1004D00020F0823009F467C0089561110DC044B165
:1004E00021E030E0B90102C0660F771F9A95E2F76C
:1004F000CB01809584230DC0613069F444B121E0C3
:1005000030E0B90102C0660F771F9A95E2F7CB0180
:10051000842B84B90895623009F076C044B121E09B
:1005200030E0B90102C0660F771F9A95E2F7CB0160
:10053000962F9095942394B995B1892B85B90895F8
:1005400061110DC047B121E030E0B90102C0660F72
:10055000771F9A95E2F7CB01809584230DC0613017
:1005600069F447B121E030E0B90102C0660F771F9E
:100570009A95E2F7CB01842B87B90895623009F090
:1005800043C047B121E030E0B90102C0660F771FD8
:100590009A95E2F7CB01962F9095942397B998B14D
:1005A000892B88B9089561110DC04AB121E030E06E
:1005B000B90102C0660F771F9A95E2F7CB018095CB
:1005C00084230DC0613069F44AB121E030E0B90103
:1005D00002C0660F771F9A95E2F7CB01842B8AB988
:1005E0000895623089F44AB121E030E0B90102C0D7
:1005F000660F771F9A95E2F7CB01962F909594237B
:100600009AB99BB1892B8BB90895982F97708695CD
:10061000869586958130E9F018F0823099F1089539
:1006200045B121E030E061110AC0B90102C0660F96
:10063000771F9A95E2F7CB018095842308C0B90112
:1006400002C0660F771F9A95E2F7CB01842B85B91C
:10065000089548B121E030E061110AC0B90102C03B
:10066000660F771F9A95E2F7CB018095842308C027
:10067000B90102C0660F771F9A95E2F7CB01842B70
:1006800088B908954BB121E030E061110AC0B90189
:1006900002C0660F771F9A95E2F7CB0180958423FD
:1006A00008C0B90102C0660F771F9A95E2F7CB0127
:1006B000842B8BB90895482F47708695869586952B
:1006C000813039F020F08230B1F429B103C023B178
:1006D00001C026B181E090E0042E02C0880F991F6E
:1006E0000A94E2F730E08223932302C09595879520
:1006F0004A95E2F7089580E00895813031F018F0CE
:10070000823029F0089564B9089567B908956AB9E7
:100710000895813031F018F0823029F0089565B9DC
:10072000089568B908956BB90895EAE7F0E080810B
:100730008068808380818460808380818260808300
:10074000808181608083ECE7F0E080818F77808317
:1007500080818064808380818F7D808308959091E3
:100760007C00907F892B80937C0080917A0080644C
:1007700080937A0080917A0086FDFCCF809178008A
:100780002091790090E0922B089590917C00907FC9
:10079000892B80937C0080917A00806480937A001A
:1007A00080917A0086FDFCCF60917800809179007D
:1007B00070E0782B80E090E00E94340B20E030E085
:1007C00040EA5BE30E94EB0B0895CF93C82F682F9C
:1007D000617080E10E940503C1FB662760F981E139
:1007E0000E940503C2FB662760F982E10E940503AF
:1007F000C3FB662760F983E10E940503C4FB6627FB
:1008000060F984E10E940503C5FB662760F985E174
:100810000E940503C6FB662760F986E1CF910C9420
:10082000050361E080E10E94610261E081E10E94D4
:10083000610261E082E10E94610261E083E10E9465
:10084000610261E084E10E94610261E085E10E9451
:10085000610261E086E10E9461028FEF0C94E50382
:100860008A3040F4E82FF0E0E050FF4F808180951F
:100870000E94E50360E080E00E94050361E080E003
:100880000C94050360E080E10E94610261E081E177
:100890000E94610260E875E280E090E00E94D00072
:1008A0002FEF81EE94E0215080409040E1F700C0AE
:1008B000000008950F931F93CF93DF9300E010E0A3
:1008C000D0E0C0E00E9451018823C1F00E944A019B
:1008D0008230D9F0833049F4D130D1F4EC2FF0E0FC
:1008E000E15EF64F108281E01BC0D13089F4EC2F1D
:1008F000F0E0E15EF64F8083CF5F0BC08FE99FE0B1
:100900000197F1F700C0000004C0D1E0C0E001C0D1
:10091000D0E00336110519F00F5F1F4FD3CF80E0F1
:10092000DF91CF911F910F9108958FE199E0089584
:10093000CF93C82F60E080E00E9405036C2F6170A8
:1009400082E00E940503C1FB662760F983E00E94F4
:100950000503C2FB662760F984E00E940503C3FB20
:10096000662760F985E00E94050360E081E00E944F
:10097000050361E081E00E94050385E08A95F1F7B7
:10098000000060E081E00E9405038FE891E001979C
:10099000F1F700C00000CF910895CF93C82F60E019
:1009A00080E00E940503C4FB662760F982E00E9494
:1009B0000503C5FB662760F983E00E940503C6FBBB
:1009C000662760F984E00E9405036C2F661F662786
:1009D000661F85E00E94050360E081E00E94050338
:1009E00061E081E00E94050385E08A95F1F700004F
:1009F00060E081E00E9405038FE891E00197F1F744
:100A000000C000006C2F617082E00E940503C1FBF2
:100A1000662760F983E00E940503C2FB662760F940
:100A200084E00E940503C3FB662760F985E00E940D
:100A3000050360E081E00E94050361E081E00E941F
:100A4000050395E09A95F1F7000060E081E00E94CF
:100A500005038FE891E00197F1F700C00000CF9106
:100A60000895CF93C82F61E080E00E940503C4FB86
:100A7000662760F982E00E940503C5FB662760F9DE
:100A800083E00E940503C6FB662760F984E00E94AC
:100A900005036C2F661F6627661F85E00E9405030D
:100AA00060E081E00E94050361E081E00E940503AF
:100AB00085E08A95F1F7000060E081E00E9405037F
:100AC0008FE891E00197F1F700C000006C2F617092
:100AD00082E00E940503C1FB662760F983E00E9463
:100AE0000503C2FB662760F984E00E940503C3FB8F
:100AF000662760F985E00E94050360E081E00E94BE
:100B0000050361E081E00E94050395E09A95F1F705
:100B1000000060E081E00E9405038FE891E001970A
:100B2000F1F700C00000CF91089561E080E00E94DD
:100B3000610261E081E00E94610261E082E00E9466
:100B4000610261E083E00E94610261E084E00E9452
:100B5000610261E085E00E94610260E081E00E9444
:100B600005032FEF89EF90E0215080409040E1F79E
:100B700000C0000083E00E9498048FE19EE401978A
:100B8000F1F700C0000083E00E9498048FE193E039
:100B90000197F1F700C0000083E00E9498048FE104
:100BA00093E00197F1F700C0000082E00E949804F2
:100BB00088E20E94CD048FE193E00197F1F700C035
:100BC000000088E00E94CD048FE193E00197F1F7E7
:100BD00000C0000081E00E94CD048FE39FE10197F7
:100BE000F1F700C0000086E00E94CD048FE99FE08D
:100BF0000197F1F700C000008EE00E94CD048FE164
:100C000093E00197F1F700C000000895CF93C82F3B
:100C1000842F90E4699F800D1124815480680E9484
:100C2000CD048FE891E00197F1F700C000008C2F10
:100C3000CF910C9431050C9431050F931F93CF93F2
:100C40008C01842F90E4699F800D11248154806869
:100C50000E94CD048FE891E00197F1F700C00000F9
:100C6000C0E0F801EC0FF11D8081882321F00E9483
:100C70003105CF5FF6CFCF911F910F9108950F935C
:100C80001F93CF938C01C0E0F801EC0FF11D808120
:100C9000882321F00E943105CF5FF6CFCF911F91BD
:100CA0000F91089581E00E94CD048FE39FE10197A9
:100CB000F1F700C00000089560E080E10E94610249
:100CC00061E081E10E94610260E875E280E090E00D
:100CD0000E94D0002FEF81EE94E0215080409040A0
:100CE000E1F700C0000010921E0908950F931F93B2
:100CF000CF93DF9300E010E0C0E00E945101882311
:100D000099F00E944A01873441F4CC2309F457C07A
:100D1000C13009F056C0C2E055C0813409F051C05D
:100D2000C23009F04EC009C08FE99FE00197F1F78A
:100D300000C00000C33009F04CC0C0E0D0E0D630A5
:100D400008F045C00E9451018823C9F30E944A015E
:100D50008C32F1F4DF5FD330A9F3D53099F3D23080
:100D600031F4EC2FF0E0E650F74F108E07C0D4308E
:100D700039F4EC2FF0E0E650F74F1082C0E0E2CFFC
:100D8000D630D9F4EC2FF0E0EA5FF64F10821FC0A6
:100D90002C2F30E0E1E0EC0FD901A650B74FD13055
:100DA00021F458968C93CE2FCDCFD43010F48C9361
:100DB00002C01C968C93CE2FC2CFC0E0C0CFC1E042
:100DC00001C0C0E0073E93E0190739F409C081E093
:100DD00008C0073E83E0180719F00F5F1F4F8DCF43
:100DE00080E0DF91CF911F910F91089525E2EAEF06
:100DF000F8E0DC0101900D922A95E1F70895CF9378
:100E0000DF93D82FC92F60E080E00E9405038C2F6C
:100E10008F7080630E94A0018D2F0E94A00161E06D
:100E200080E0DF91CF910C9405032FEF81EE94E0E9
:100E3000215080409040E1F700C0000061E080E078
:100E40000E94610261E080E00E94050340E060E0F2
:100E500083E00E945701CAE0D1E0899199910E94F4
:100E6000FF0628E0CA3DD207C1F7F5CFCF93DF9345
:100E7000CDB7DEB72A970FB6F894DEBF0FBECDBF51
:100E80002FEF85EA9EE0215080409040E1F700C0BE
:100E900000000E94950360E875E280E090E00E9407
:100EA000D0002FEF81EE94E0215080409040E1F798
:100EB00000C0000080E00E94AF034AE050E0BE01A5
:100EC0006F5F7F4F0E948E0CCE0101960E9432010F
:100ED0002FEF83ED90E3215080409040E1F7E8CF81
:100EE00060EA76E881E090E00E94AB012FEF85EAAE
:100EF0009EE0215080409040E1F700C0000082EA6F
:100F00000E94B90182E00E94D9018AEA0E94D901B7
:100F10000E945D022FEF81EE94E0215080409040CE
:100F2000E1F700C0000080EA0E94B90182E00E945F
:100F3000D9018AEA0E94D9010C945D02CF93DF9314
:100F4000CDB7DEB72A970FB6F894DEBF0FBECDBF80
:100F50002FEF85EA9EE0215080409040E1F700C0ED
:100F600000000E94950360E875E280E090E00E9436
:100F7000D0002FEF81EE94E0215080409040E1F7C7
:100F800000C0000080E00E94C5036B017C0120E0EE
:100F900030E44CE156E40E94EB0B4B015C01A701ED
:100FA000960160E070E080EA90E40E94930A20E0FD
:100FB00030E040E85FE30E94210A9B01AC01C501DB
:100FC000B4010E94930A0E94050B2AE030E0AE01B2
:100FD0004F5F5F4F0E948E0CCE0101960E9432013E
:100FE0002FEF83ED90E3215080409040E1F7C8CF90
:100FF00061E085E00E94610261E085E00E940503F6
:101000002FEF81EE94E0215080409040E1F700C046
:10101000000060E085E00E9405032FEF81EE94E080
:10102000215080409040E1F700C00000E5CF0E94D1
:1010300042042FEF81EE94E0215080409040E1F790
:1010400000C000000E945A048823E1F30E94950426
:101050000E941F018AED98E00E941F01F3CF2FEF3D
:1010600081EE94E0215080409040E1F700C0000004
:1010700060E080E00E94610260E081E00E94610225
:101080000E94110480E00E943004D0E0C0E080E0C3
:101090000E945B03813051F4C111C1508C2F0E941A
:1010A000300480E00E945B038130D9F381E00E942C
:1010B0005B038130A9F48FE59AEE0197F1F700C048
:1010C000000081E00E945B03813009F7D111DFCF7E
:1010D000C53008F4CF5F8C2F0E943004D1E0D7CF09
:1010E0008FE39CE90197F1F700C0000081E00E94C6
:1010F0005B038111CCCFD0E0CACF2FEF81EE94E01B
:10110000215080409040E1F700C0000040E060E0E6
:1011100083E00E945701C0E28C2F0E94A001CF5FA4
:101120002FEF83ED90E3215080409040E1F700C025
:101130000000F2CF2FEF81EE94E0215080409040EC
:10114000E1F700C000000E9495030E94950561E050
:1011500080E10E94610261E081E10E94610260E041
:1011600080E10E94050360E081E10C94050360E0EA
:1011700080E10E94050361E081E10C94050361E0D8
:1011800080E10E94050360E081E10C94050360E0CA
:1011900080E10E94050360E081E10C9405030E9458
:1011A000C50320E030E048EC52E40E94EB0B0895C8
:1011B000CF92DF92EF92FF920F931F93CF93DF9323
:1011C000CDB7DEB72A970FB6F894DEBF0FBECDBFFE
:1011D0006B017C0141E062E08DED98E00E941D060C
:1011E0008E010F5F1F4F22E030E045E050E0C70165
:1011F000B6010E94580C0E943F068FED0E941B060C
:1012000083E40E941B062A960FB6F894DEBF0FBE39
:10121000CDBFDF91CF911F910F91FF90EF90DF90A5
:10122000CF9008951F93CF93DF9300D000D000D0CC
:10123000CDB7DEB7182F41E061E082EE98E00E9462
:101240001D064AE050E0BE016F5F7F4F812F90E0A6
:101250000E94780C0E943F068FED0E941B0683E4DB
:101260000E941B0626960FB6F894DEBF0FBECDBFB8
:10127000DF91CF911F9108950E949A0887E10E9403
:10128000120980E00E94CF086B017C010E94D808FF
:1012900020E030E048EB51E4C701B6010E94E60BC4
:1012A00018161CF40E94BF080FC020E030E048EB85
:1012B00051E4C701B6010E948E0A87FF03C00E9455
:1012C000B70802C00E94C7082FEF83ED90E32150BA
:1012D00080409040E1F700C00000D3CFCF93DF9370
:1012E000CDB7DEB72A970FB6F894DEBF0FBECDBFDD
:1012F0002FEF85EA9EE0215080409040E1F700C04A
:1013000000000E94950360E875E280E090E00E9492
:10131000D0002FEF81EE94E0215080409040E1F723
:1013200000C0000080E00E94C50320E030E048ECEF
:1013300052E40E94EB0B0E94050B862F4AE050E01E
:10134000BE016F5F7F4F90E00E94780CCE01019646
:101350000E9432012FEF83ED90E3215080409040B6
:10136000E1F7DECF0E94950544E061E08DEE98E064
:101370000E941D0680E090E00895CF93DF93CDB7E3
:10138000DEB7CA54D1090FB6F894DEBF0FBECDBF89
:101390000E9495050E945C062FEF81EE94E021509B
:1013A00080409040E1F700C000000E94760688234C
:1013B000C9F0CE0186960E94F60685E2FE01B69639
:1013C000DE01119601900D928A95E1F741E061E00E
:1013D000CE0101960E941D0641E062E0CE010D960D
:1013E0000E941D062FEF83ED90E321508040904036
:1013F000E1F7D9CF0E94150780E090E00895A1E2BF
:101400001A2EAA1BBB1BFD010DC0AA1FBB1FEE1F7E
:10141000FF1FA217B307E407F50720F0A21BB30BC9
:10142000E40BF50B661F771F881F991F1A9469F745
:1014300060957095809590959B01AC01BD01CF01A1
:1014400008955058BB27AA270E94390A0C94AC0B68
:101450000E949E0B38F00E94A50B20F039F49F3FAC
:1014600019F426F40C949B0B0EF4E095E7FB0C9416
:10147000950BE92F0E94BD0B58F3BA17620773074B
:101480008407950720F079F4A6F50C94DF0B0EF491
:10149000E0950B2EBA2FA02D0B01B90190010C0184
:1014A000CA01A0011124FF27591B99F0593F50F49C
:1014B000503E68F11A16F040A22F232F342F4427F4
:1014C000585FF3CF469537952795A795F0405395EC
:1014D000C9F77EF41F16BA0B620B730B840BBAF0BC
:1014E0009150A1F0FF0FBB1F661F771F881FC2F727
:1014F0000EC0BA0F621F731F841F48F4879577953B
:101500006795B795F7959E3F08F0B0CF9395880FF4
:1015100008F09927EE0F9795879508950E94710B13
:1015200008F481E008950E94A70A0C94AC0B0E9475
:10153000A50B58F00E949E0B40F029F45F3F29F064
:101540000C94950B51110C94E00B0C949B0B0E9486
:10155000BD0B68F39923B1F3552391F3951B550BFC
:10156000BB27AA2762177307840738F09F5F5F4F76
:10157000220F331F441FAA1FA9F335D00E2E3AF0B5
:10158000E0E832D091505040E695001CCAF72BD0CD
:10159000FE2F29D0660F771F881FBB1F261737071E
:1015A0004807AB07B0E809F0BB0B802DBF01FF2750
:1015B00093585F4F3AF09E3F510578F00C94950B8D
:1015C0000C94E00B5F3FE4F3983ED4F38695779557
:1015D0006795B795F7959F5FC9F7880F911D969509
:1015E000879597F90895E1E0660F771F881FBB1F65
:1015F000621773078407BA0720F0621B730B840B12
:10160000BA0BEE1F88F7E09508950E94C50B88F08D
:101610009F5798F0B92F9927B751B0F0E1F0660FB6
:10162000771F881F991F1AF0BA95C9F714C0B130F7
:1016300091F00E94DF0BB1E008950C94DF0B672F4F
:10164000782F8827B85F39F0B93FCCF38695779526
:101650006795B395D9F73EF490958095709561950F
:101660007F4F8F4F9F4F0895E89409C097FB3EF43A
:1016700090958095709561957F4F8F4F9F4F9923DF
:10168000A9F0F92F96E9BB279395F695879577955D
:101690006795B795F111F8CFFAF4BB0F11F460FF1D
:1016A0001BC06F5F7F4F8F4F9F4F16C0882311F075
:1016B00096E911C0772321F09EE8872F762F05C089
:1016C000662371F096E8862F70E060E02AF09A9524
:1016D000660F771F881FDAF7880F9695879597F919
:1016E0000895990F0008550FAA0BE0E8FEEF1616B3
:1016F0001706E807F907C0F012161306E407F50706
:1017000098F0621B730B840B950B39F40A2661F079
:10171000232B242B252B21F408950A2609F4A1401C
:10172000A6958FEF811D811D089597F99F6780E829
:1017300070E060E008959FEF80EC089500240A9423
:101740001616170618060906089500240A9412169C
:101750001306140605060895092E0394000C11F4CF
:10176000882352F0BB0F40F4BF2B11F460FF04C07C
:101770006F5F7F4F8F4F9F4F089557FD9058440FD5
:10178000551F59F05F3F71F04795880F97FB991FE0
:1017900061F09F3F79F0879508951216130614069D
:1017A000551FF2CF4695F1DF08C01616170618062A
:1017B000991FF1CF86957105610508940895E89405
:1017C000BB2766277727CB0197F908950E94710BF5
:1017D00008F48FEF08950E94FE0B0C94AC0B0E944E
:1017E0009E0B38F00E94A50B20F0952311F00C946D
:1017F000950B0C949B0B11240C94E00B0E94BD0BD9
:1018000070F3959FC1F3950F50E0551F629FF00153
:10181000729FBB27F00DB11D639FAA27F00DB11D6C
:10182000AA1F649F6627B00DA11D661F829F2227F5
:10183000B00DA11D621F739FB00DA11D621F839F7C
:10184000A00D611D221F749F3327A00D611D231F52
:10185000849F600D211D822F762F6A2F11249F57A0
:1018600050409AF0F1F088234AF0EE0FFF1FBB1FA3
:10187000661F771F881F91505040A9F79E3F510562
:1018800080F00C94950B0C94E00B5F3FE4F3983ED2
:10189000D4F3869577956795B795F795E7959F5F0C
:1018A000C1F7FE2B880F911D9695879597F908959E
:1018B000EF920F931F93CF93DF93E80147FD02C090
:1018C00034E001C034E1042E000C550B57FF03C077
:1018D000519541955109E32E022F242FAE010E940C
:1018E000B30CCE01DF91CF911F910F91EF9008952E
:1018F0004532510520F4423010F00C94830CFB016A
:101900001082CB010895BB274A3031F4992322F489
:10191000BDE2909581959F4F0C949A0C45325105EC
:1019200020F4423010F00C94990CFB011082CB0192
:101930000895BB27FB015527AA27880F991FAA1FC7
:10194000A41710F0A41B83955051B9F7A05DAA33DA
:1019500008F0A95DA193009779F7B111B1931192A5
:10196000CB010C94E50EA9E0B0E0E9EBFCE00C94AF
:10197000FB0E6A01122FB02E2BE3201720F0FF245C
:10198000F394F00E02C02CE3F22E0F2D27E0AE01EF
:101990004F5F5F4F0E940D0EBC014981842F8970FB
:1019A000813031F0E1FC06C0E0FE06C090E205C0E7
:1019B0009DE203C09BE201C090E05E2D507143FFA9
:1019C0003CC0911102C083E001C084E0811718F48B
:1019D000212F281B01C020E051110BC0F601822FDE
:1019E00030E2882319F031938150FBCFC20ED11C15
:1019F00020E0992329F0D6019C93F60131966F01DE
:101A0000C6010396E2FE0AC03EE4D6013C9341E4DF
:101A100011964C93119712963C9306C03EE6F60140
:101A2000308341E641833283FC01322F40E233238D
:101A300009F442C041933150FACF42FF44C09111A2
:101A400002C083E001C084E0811718F4212F281B15
:101A500001C020E051110BC0F601822F30E2882333
:101A600019F031938150FBCFC20ED11C20E0992395
:101A700029F0D6019C93F60131966F01C6010396B9
:101A8000E2FE0BC039E4D6013C933EE411963C9350
:101A9000119736E412963C9307C039E6F60130837D
:101AA0003EE6318336E63283FC01322F40E23323B7
:101AB00019F041933150FBCFFC01E20FF11D108270
:101AC0008EEF9FEFA6C021E030E0911102C020E030
:101AD00030E0161617061CF4FB01319602C0E1E057
:101AE000F0E02E0F3F1FBB2021F0EB2DF0E03196F0
:101AF00002C0E0E0F0E02E0F3F1FE12FF0E02E17D4
:101B00003F071CF4121B212F01C020E08E2D88718D
:101B100059F4F601822F30E2882319F03193815075
:101B2000FBCFC20ED11C20E0992329F0D6019C9353
:101B3000F60131966F0151110BC0F601822F90E32F
:101B4000882319F091938150FBCFC20ED11C20E065
:101B50000F2D060F9A81342F307144FF03C091334B
:101B600009F40150101624F4093018F008E001C0FF
:101B700001E0AB0177FF02C040E050E0FB01E41B55
:101B8000F50BA1E0B0E0AC0FBD1FEA0FFB1F8EE22A
:101B9000A82E4B01801A91080B2D10E0119501958C
:101BA00011094F3FBFEF5B0721F4D601AC921196AC
:101BB0006D01641775072CF08416950614F4818165
:101BC00001C080E3415051093196D60111967D0143
:101BD0004017510724F0D6018C936701E2CF6417B8
:101BE000750739F4963320F4953319F4311101C097
:101BF00081E3F6018083F701822F90E2882319F0B8
:101C000091938150FBCFF701E20FF11D108280E02C
:101C100090E02996ECE00C94170F283008F027E0AC
:101C20003327DA01990F311D87FD91600096610518
:101C3000710539F432602E5F3D9330E32A95E1F768
:101C400008959F3F30F080387105610509F03C5FD1
:101C50003C5F3D93913008F08068911DDF93CF93F6
:101C60001F930F93FF92EF92192F987F9695E92F6C
:101C700096959695E90FFF27EE53FF4F9927332747
:101C8000EE24FF24A701E70105900894079428F4A7
:101C9000360FE71EF81E491F511D660F771F881F5C
:101CA000991F0694A1F70590079428F4E70EF81EF3
:101CB000491F561FC11D770F881F991F661F069465
:101CC000A1F70590079428F4F80E491F561FC71F67
:101CD000D11D880F991F661F771F0694A1F70590E5
:101CE000079420F4490F561FC71FD81F990F661F6E
:101CF000771F881F0694A9F784911095177041F0FB
:101D0000D695C79557954795F794E7941A95C1F7D7
:101D1000E8E6F0E0689415901591359165919591FC
:101D200005907FE27395E118F10A430B560BC90B3E
:101D3000D009C0F7E10CF11E431F561FC91FD01D6B
:101D40007EF4703311F48A95E6CFE894015030F0B8
:101D5000080F0AF40027021708F4202F2395022FFA
:101D60007A3328F079E37D932A95E9F710C07D93C3
:101D70002A9589F606949795679537951795179440
:101D8000E118F10A430B560BC90BD00998F02395C3
:101D90007E9173957A3308F070E37C932013B8F743
:101DA0007E9170617D9330F0839571E37D9370E354
:101DB0002A95E1F71124EF90FF900F911F91CF9199
:101DC000DF91992787FD90950895DC01FC01672F2D
:101DD00071917723E1F7329704C07C916D93708302
:101DE0006291AE17BF07C8F308952F923F924F92AA
:101DF0005F926F927F928F929F92AF92BF92CF929B
:101E0000DF92EF92FF920F931F93CF93DF93CDB7A3
:101E1000DEB7CA1BDB0B0FB6F894DEBF0FBECDBF1B
:101E200009942A88398848885F846E847D848C84EC
:101E30009B84AA84B984C884DF80EE80FD800C81F5
:101E40001B81AA81B981CE0FD11D0FB6F894DEBFD8
:0C1E50000FBECDBFED010895F894FFCF48
:101E5C003F065B4F666D7D077F6FD007DC07E90798
:101E6C00F50702080E081B082808340841084D081D
:101E7C005A08660873087F088C089808A508B108EA
:101E8C00BE08CA08D708E308F008FC0809091509B8
:101E9C0022092E093A09470953095F096C09780987
:101EAC00840990099D09A909B509C109CE09DA0966
:101EBC00E609F209FE090A0A160A220A2E0A3A0A49
:101ECC00460A520A5E0A6A0A760A810A8D0A990A39
:101EDC00A50AB00ABC0AC80AD30ADF0AEB0AF60A3A
:101EEC00020B0D0B180B240B2F0B3B0B460B510B42
:101EFC005C0B680B730B7E0B890B940B9F0BAA0B63
:101F0C00B50BC00BCB0BD50BE00BEB0BF50B000C97
:101F1C000B0C150C200C2A0C350C3F0C490C540CDA
:101F2C005E0C680C720C7C0C860C900C9A0CA40C3D
:101F3C00AE0CB80CC20CCB0CD50CDF0CE80CF20CB4
:101F4C00FB0C050D0E0D170D210D2A0D330D3C0D3F
:101F5C00450D4E0D570D600D680D710D7A0D830DED
:101F6C008B0D940D9C0DA50DAD0DB50DBD0DC60DB8
:101F7C00CE0DD60DDE0DE60DED0DF50DFD0D050EA0
:101F8C000C0E140E1B0E230E2A0E310E390E400EA3
:101F9C00470E4E0E550E5C0E620E690E700E770ECD
:101FAC007D0E840E8A0E900E970E9D0EA30EA90E1A
:101FBC00AF0EB50EBB0EC10EC70ECC0ED20ED70E89
:101FCC00DD0EE20EE70EED0EF20EF70EFC0E010F1B
:101FDC00060F0B0F0F0F140F190F1D0F210F260FCC
:101FEC002A0F2E0F320F360F3A0F3E0F420F460FAD
:101FFC004A0F4D0F510F540F580F5B0F5E0F610FAF
:10200C00640F670F6A0F6D0F700F730F750F780FDA
:10201C007A0F7D0F7F0F810F830F850F870F890F2D
:10202C008B0F8D0F8E0F900F920F930F940F960FA7
:10203C00970F980F990F9A0F9B0F9C0F9C0F9D0F4A
:10204C009E0F9E0F9F0F9F0F9F0F9F0F9F0F9F0F16
:10205C009F0F9F0F9F0F9F0F9E0F9E0F9D0F9D0F0A
:10206C009C0F9B0F9A0F9A0F990F970F960F950F26
:10207C00940F920F910F8F0F8E0F8C0F8A0F880F6A
:10208C00860F840F820F800F7E0F7B0F790F760FD8
:10209C00740F710F6F0F6C0F690F660F630F600F6A
:1020AC005D0F590F560F530F4F0F4B0F480F440F27
:1020BC00400F3C0F380F340F300F2C0F280F240F0C
:1020CC001F0F1B0F160F120F0D0F080F030FFE0E15
:1020DC00F90EF40EEF0EEA0EE50EDF0EDA0ED50E4B
:1020EC00CF0EC90EC40EBE0EB80EB20EAC0EA60E9E
:1020FC00A00E9A0E940E8D0E870E800E7A0E730E15
:10210C006D0E660E5F0E580E510E4A0E430E3C0EAF
:10211C00350E2E0E260E1F0E170E100E080E010E6B
:10212C00F90DF10DE90DE20DDA0DD20DCA0DC10D4F
:10213C00B90DB10DA90DA00D980D8F0D870D7E0D4C
:10214C00760D6D0D640D5B0D520D490D400D370D67
:10215C002E0D250D1C0D130D090D000DF60CED0C9F
:10216C00E30CDA0CD00CC70CBD0CB30CA90C9F0CF7
:10217C00950C8B0C810C770C6D0C630C590C4F0C63
:10218C00440C3A0C2F0C250C1B0C100C050CFB0BE7
:10219C00F00BE50BDB0BD00BC50BBA0BAF0BA40B89
:1021AC00990B8E0B830B780B6D0B620B570B4B0B38
:1021BC00400B350B2A0B1E0B130B070BFC0AF00AFA
:1021CC00E50AD90ACE0AC20AB60AAB0A9F0A930AD2
:1021DC00870A7C0A700A640A580A4C0A400A340AB4
:1021EC00280A1C0A100A040AF809EC09E009D409A7
:1021FC00C709BB09AF09A30997098A097E097209A6
:10220C00650959094D094009340928091B090F09A9
:10221C000209F608EA08DD08D108C408B808AB08BA
:10222C009F089208860879086D08600853084708CB
:10223C003A082E08210815080808FC07EF07E207E2
:10224C00D607C907BD07B007A30797078A077E07FC
:10225C007107650758074C073F0732072607190710
:10226C000D070007F406E706DB06CE06C206B50628
:10227C00A9069D069006840677066B065F06520635
:10228C0046063A062D06210615060806FC05F0053D
:10229C00E405D805CB05BF05B305A7059B058F0540
:1022AC00830577056B055F05530547053B052F0532
:1022BC00230518050C050005F404E904DD04D1041C
:1022CC00C604BA04AF04A30498048C0481047504F6
:1022DC006A045F04540448043D04320427041C04BB
:1022EC0011040604FB03F003E503DA03CF03C40374
:1022FC00BA03AF03A4039A038F0384037A03700316
:10230C0065035B03500346033C03320328031E039F
:10231C0014030A030003F602EC02E202D802CF0215
:10232C00C502BC02B202A9029F0296028C02830271
:10233C007A02710268025F0256024D0244023B02AD
:10234C00320229022102180210020702FF01F601D3
:10235C00EE01E601DE01D501CD01C501BD01B601DD
:10236C00AE01A6019E0197018F01880180017901C0
:10237C0071016A0163015C0155014E014701400185
:10238C00390132012C0125011F01180112010B0129
:10239C000501FF00F900F300ED00E700E100DB00B0
:1023AC00D600D000CA00C500C000BA00B500B0000D
:1023BC00AB00A600A1009C00970092008D00890044
:1023CC00840080007B00770073006F006B00670057
:1023DC0063005F005B005700540050004C00490044
:1023EC00460042003F003C0039003600330030000C
:1023FC002E002B0029002600240021001F001D00A8
:10240C001B001900170015001300110010000E001E
:10241C000D000B000A00090008000600050005006D
:10242C000400030002000200010001000000000093
:10243C000000000000000000000000000000000090
:10244C000100010002000300030004000500060067
:10245C000700080009000B000C000D000F00110014
:10246C0012001400160018001A001C001E00200098
:10247C002200250027002A002C002F0032003500F6
:10248C0038003B003E004100440047004B004E002A
:10249C005200550059005D006100650069006D0037
:1024AC007100750079007E00820086008B00900020
:1024BC00940099009E00A300A800AD00B200B800E3
:1024CC00BD00C200C800CD00D300D800DE00E4007F
:1024DC00EA00F000F600FC00020108010F011501F2
:1024EC001B01220128012F0136013D0143014A0144
:1024FC00510158015F0166016E0175017C01840177
:10250C008B0193019A01A201AA01B201B901C10187
:10251C00C901D101D901E201EA01F201FA01030278
:10252C000B0214021C0225022E0237023F02480243
:10253C0051025A0263026C0275027E0288029102F9
:10254C009A02A402AD02B702C002CA02D402DD0292
:10255C00E702F102FB0205030F03190323032D030A
:10256C00370341034B03560360036A0375037F0370
:10257C008A0394039F03AA03B403BF03CA03D403BF
:10258C00DF03EA03F50300040B04160421042C04F6
:10259C00370443044E045904640470047B04870418
:1025AC0092049D04A904B404C004CC04D704E3042D
:1025BC00EF04FA04060512051E052905350541052B
:1025CC004D055905650571057D0589059505A1051F
:1025DC00AD05B905C505D105DE05EA05F60502060A
:1025EC000F061B062706330640064C0658066506E2
:1025FC0071067D068A069606A306AF06BC06C806BB
:10260C00D506E106EE06FA060707130720072C0786
:10261C003907450752075E076B0777078407910751
:10262C009D07AA07B607C307CF070A0D0074656D8F
:10263C003A0073657420706F696E743A004772616A
:0A264C0067682053797374656D0010
:00000001FF
